EDEO A  000687614P:1@175CL R00B000054930080B00005534002000
EDEO A  000687615N:1@175BNKR00B000030780030B00003090002060NB000030780030PB000030890030
EDEO A  000687616N:1@175CCLR00B000052450580B00005246021010
EDEO A  000687617N:1@175BRMR00B000015460930B00001548029010
EDEO A  000687618N:1@175CTXR00B000067880010B00006791004010
EDEO A  000687619N:1@175CMZR00B000012390020B00001240001010
EBEO A  000687620T:1@175CBG             0    AAAR  B0000000070760000010B0000000070770000001TRIM     41  TB0000000070760000010TRIM   NB0000000070770000001       
EDEO A  000687621P:1@175COPR00B000061200020B00006125002000
EDEO A  000687622P:1@175CL R00B000054940020B00005534002000
EDEO A  000687623P:1@175BNKR00B000030550050B00003090001060NB000030780030NB000030900020
EDEO A  000687624N:1@175CFDR00B000009770010B00000982005060NB000009770010PB000009800050
EDEO A  000687625P:1@175BRER00B000054820010B00005507004060NB000054830030PB000055070040
EDEO A  000687626P:1@176CYNR00B000075580020B00007641001060NB000076240010NB000076400020
EDEO A  000687627N:1@176COHR00B000036220040B00003623041010
EBEO A  000687628T:1@176CBG             0    AAAR  B0000000070760000010B0000000070770000001CAES     00
EDEO A  000687629P:1@176COPR00B000061200020B00006124005000
EDEO A  000687630X:1@176CLBR00B000045560010B00004607001000
EBEO A  000687631X:1@176BOL             4    AAAR  B0000000069870000001B0000000070150000001         00
EDEO A  000687632N:1@176CCCR00B000008070050B00000815001060NB000008070050PB000008140020
EDEO A  000687633P:1@176BRER00B000054820010B00005507002060NB000054830030PB000055070020
EDEO A  000687634P:1@176CYNR00B000076250010B00007641001060PB000076250010NB000076400020
EDEO A  000687635P:1@176CMXR00B000050300060B00005118020000
EDEO A  000687636C:1@176COPR00B000061200010B00006123010000
EDEO A  000687637P:1@176CHKR00B000029370010B00002939008000
EDEO A  000687638X:1@176BNKR00B000030570010B00003159001000
EDEO A  000687639X:1@176CBSR00B000024250010B00002486001000
EDEO A  000687640P:1@176BR R00B000090170100B00009020010000
EDEO A  000687641P:1@176CTXR00B000067840090B00006793003000
EDEO A  000687642P:1@176CNIR00B000094150010B00009433001000
EDEO A  000687643N:1@176CPSR00B000044650010B00004469005010
EDEO A  000687644P:1@176CL R00B000054950080B00005534002000
EDEO A  000687645P:1@176BNKR00B000030550050B00003091002000
EDEO A  000687646N:1@176CBAR00B000017380070B00001756011060NB000017380070PB000017530020
EDEO A  000687647P:1@176CCKR00B000018160030B00001825003060PB000018160030NB000018220020
EDEO A  000687648P:1@176BSXR00B000024500040B00002454001000
EDEO A  000687649X:1@176CTXR00B000066810010B00006893001000
EDEO A  000687650X:1@176COGR00B000045180010B00004569001000
EDEO A  000687651N:1@176BKER00B000038510020B00003869001010
EDEO A  000687652N:1@176CSGR00B000040790500B00004082001010
EDEO A  000687653B:1@176CLXR00B000061460010B00006169001000
EDEO A  000687654B:1@177CALR00B000023290010B00002350001000
EDEO A  000687655X:1@177CEAR00B000016700010B00001744001000
EDEO A  000687656X:1@177BR R00B000089180010B00009120001000
EDEO A  000687657X:1@177CYDR00B000007240010B00000781001000
EDEO A  000687658X:1@177CNXR00B000063770010B00006483001000
EDEO A  000687659N:1@177BNIR00B000079850130B00007989005000
EDEO A  000687660P:1@177CHTR00B000019100010B00001913004000
EDEO A  000687661N:1@177CPKR00B000030110040B00003040001010
EDEO A  000687662X:1@177CALR00B000023140010B00002365001000
EDEO A  000687663X:1@177CCKR00B000017900010B00001847001000
EDEO A  000687664N:1@177BSXR00B000024520010B00002454008010
EDEO A  000687665N:1@177CYDR00B000007490500B00000756002000
EDEO A  000687666X:1@177CMXR00B000050050010B00005060001000
EDEO A  000687667N:1@177BLKR00B000143270010B00014335001010
EDEO A  000687668P:1@177CINR00B000043280070B00004439002000
EDEO A  000687669N:1@177CPER00B000018370010B00001843003010
EDEO A  000687670N:1@177CBER00B000083810030B00008387003010
EDEO A  000687671X:1@177CENR00B000025590010B00002654001000
EDEO A  000687672B:1@177BR R00B000090070010B00009030001000
EDEO A  000687673P:1@177CTXR00B000067840080B00006793003000
EDEO A  000687674B:1@177CNXR00B000064170010B00006444001000
EDEO A  000687675N:1@177BNSR00B000042530010B00004259003000
EDEO A  000687676X:1@177CLXR00B000061310010B00006184001000
EDEO A  000687677P:1@177CBSR00B000024590010B00002461016000
EDEO A  000687678P:1@177CEGR00B000059000010B00005908001000
EDEO A  000687679B:1@177BR R00B000090070010B00009030001000
EDEO A  000687680N:1@177CVSR00B000028680510B00002870018010
EDEO A  000687681N:1@177BMYR00B000023070060B00002308004010
EDEO A  000687682P:1@177CL R00B000054960020B00005534002000
EDEO A  000687683N:1@177CBHR00B000033770010B00003380001000
EDEO A  000687684B:1@185CMXR00B000050200010B00005045001000
EDEO A  000687685N:1@185CG R00B000047430010B00004746002010
EDEO A  000687686N:1@185CVXR00B000056580020B00005659005010
EDEO A  000687687B:1@185BSXR00B000024420010B00002464001000
EDEO A  000687688P:1@185CINR00B000043280070B00004438005000
EDEO A  000687689N:1@185CALR00B000023350060B00002340003060PB000023350060NB000023400030
EDEO A  000687690P:1@185CMXR00B000050300060B00005114008000
EDEO A  000687691N:1@185CG R00B000047440020B00004746002010
EBEO A  000687692N:1@185CZNp            0    AAAR  B0000000056850000001B0000000058000000001         10
EDEO A  000687693B:1@185BSXR00B000024420010B00002464001000
EDEO A  000687694P:1@185CINR00B000043280070B00004438007000
EDEO A  000687695N:1@185CAIR00B000060900250B00006106002000
EDEO A  000687696X:1@185CNIR00B000093900010B00009448001000
EDEO A  000687697P:1@185CCKR00B000018160030B00001824003000
EDEO A  000687698N:1@185CYHR00B000038300970B00003833038010
EDEO A  000687699P:1@185BR R00B000090170070B00009020010040  PB0000000090170000007       TB0000000090190000007INET   
EDEO A  000687700P:1@185CHKR00B000029370010B00002938001000
EDEO A  000687701N:1@185CMXR00B000050310060B00005035001010
EDEO A  000687702N:1@185C  R00B000046730090B00004675057040  NB0000000046730000009       TB0000000046740000003BRUT   
EBEO A  000687703T:1@185CFC             0    AAAR  B0000000033780000020B0000000034770000001BRUT     00
EDEO A  000687704N:1@185CTXR00B000067880010B00006790001010
EDEO A  000687705P:1@185BRER00B000054820010B00005506002060NB000054830030PB000055060020
EDEO A  000687706P:1@185CINR00B000043280070B00004413002000
EDEO A  000687707P:1@185CAMR00B000039980050B00004084003040  NB0000000040000000001       TB0000000040040000003INET   
EDEO A  000687708N:1@185COLR00B000053750030B00005379005010
EDEO A  000687709N:1@185CCIR00B000031490020B00003156002060PB000031490020NB000031560020
EDEO A  000687710N:1@185CUKR00B000055590330B00005571040010
EDEO A  000687711P:1@186BSXR00B000024490040B00002454001000
EBEO A  000687712T:1@186CIN             0    AAAR  D0000000001000000001D0000200000000000001BRUT     03  B0000000044000000001MADF   B0000000044390000002MADF   
EDEO A  000687713P:1@186CAMR00B000039980050B00004083008000
EDEO A  000687714N:1@186CMSR00B000014030050B00001405008010
EDEO A  000687715N:1@186CVXR00B000056570080B00005659005040  TD0000005658000000001BTRD   NB0000000056590000005       
EDEO A  000687716X:1@186BSIR00B000009600010B00001065001000
EBEO A  000687717T:1@186CIN             0    AAAR  B0000000044000000001B0000000044390000002CAES     00
EDEO A  000687718N:1@186BZHR00B000063550080B00006360003060NB000063550080PB000063600030
EDEO A  000687719N:1@186CMSR00B000014030160B00001405010010
EDEO A  000687720N:1@186CVXR00B000056570080B00005658005040  TD0000005658000000001BTRD   NB0000000056580000005       
EDEO A  000687721X:1@186BSXR00B000024270010B00002479001000
EDEO A  000687722P:1@186CIXR00B000017050020B00001911002060NB000017050020NB000017340020
EDEO A  000687723C:1@186CALR00B000022990010B00002379001000
EDEO A  000687724N:1@186CMKR00B000008280100B00000836005040  TB0000000008280000010TRIM   NB0000000008360000005       
EDEO A  000687725P:1@186BSXR00B000024490040B00002454005000
EDEO A  000687726P:1@186CHKR00B000029370020B00002938001000
EDEO A  000687727C:1@186CALR00B000022990010B00002380001000
EDEO A  000687728N:1@186BR R00B000090170030B00009020002000
EDEO A  000687729P:1@186CL R00B000054970080B00005534002000
EDEO A  000687730P:1@186CAMR00B000039980050B00004083011000
EDEO A  000687731P:1@186BSXR00B000024490040B00002454003000
EDEO A  000687732P:1@186CL R00B000054980020B00005534002000
EDEO A  000687733P:1@186CAMR00B000039990050B00004083011000
EBEO A  000687734T:1@186BR              0    AAAR  B0000000090160000010B0000000090200000007INET     61PB000090170070PB000090200100
EDEO A  000687735P:1@186CL R00B000054990080B00005534002000
EDEO A  000687736P:1@195ARGR00B000036360010B00003716002000
EDEO A  000687737C:1@195AL R00B000042950010B00004325001000
EDEO A  000687738P:1@195ANFR00B000067870040B00006800008000
EDEO A  000687739P:1@195ARGR00B000036360010B00003645002010
EDEO A  000687740P:1@195BCER00B000024040610B00002408026060NB000024050030PB000024080260
EDEO A  000687741P:1@195ANFR00B000067910040B00006800008000
EDEO A  000687742P:1@195ANFR00B000067910040B00006799003000
EDEO A  000687743N:1@195AB R00B000065000170B00006507001010
EBEO A  000687744T:1@195AHC             0    AAAR  B0000000136860000005B0000000137060000007INET     01
EDEO A  000687745N:1@195BF R00B000076010350B00007605012000
EDEO A  000687746N:1@195AXRR00B000031250030B00003150002010
EBEO A  000687747T:1@195AFL             0    AAAR  B0000000045660000020B0000000047460000020BRUT     00
EDEO A  000687748N:1@195AT R00B000063040020B00006308004010
EDEO A  000687749X:1@195ANFR00B000067700010B00006823001000
EDEO A  000687750N:1@195ABXR00B000027330190B00002734035010
EBEO A  000687751T:1@195AHC             0    AAAR  B0000000136860000005B0000000137060000007CAES     00
EDEO A  000687752N:1@195BG R00B000057020010B00005711037010
EDEO A  000687753P:1@195BCER00B000024040300B00002408013060NB000024050030NB000024080170
EDEO A  000687754N:1@195ANTR00B000055290090B00005532002060NB000055290090MB000055320020
EDEO A  000687755N:1@195AXLR00B000016850050B00001691006010
EDEO A  000687756B:1@195ADPR00B000045930010B00004618001000
EDEO A  000687757P:1@195ATRR00B000052560010B00005350004000
EDEO A  000687758N:1@195BDXR00B000064650110B00006471007000
EDEO A  000687759N:1@195BBTR00B000039950220B00003996002010
EDEO A  000687760B:1@195AFLR00B000046560010B00004685001000
EDEO A  000687761N:1@195AB R00B000065000010B00006507001010
EDEO A  000687762N:1@195BJSR00B000031650260B00003166046010
EDEO A  000687763P:1@195AGUR00B000025170020B00002520001000
EDEO A  000687764N:1@195BC R00B000039750030B00003977005010
EBEO A  000687765T:1@196ABX             0    AAAR  B0000000027280000002B0000000027450000020TRIM     01
EDEO A  000687766N:1@196AKSR00B000011370040B00001142006060PB000011370060NB000011420060
EDEO A  000687767N:1@196AMDR00B000040580010B00004060063000
EDEO A  000687768N:1@196ARBR00B000038730010B00003885010000
EBEO A  000687769T:1@196ABX             0    AAAR  B0000000027280000002B0000000027450000020CAES     00
EDEO A  000687770N:1@196BDNR00B000029880040B00002993002000
EDEO A  000687771N:1@196AETR00B000051620010B00005163015010
EDEO A  000687772B:1@196AVPR00B000028920010B00002916001000
EDEO A  000687773N:1@196ARAR00B000049050070B00004934002010
EDEO A  000687774N:1@196AESR00B000017490520B00001750002060NB000017490520PB000017500030
EDEO A  000687775N:1@196BHYR00B000008570130B00000869006010
EDEO A  000687776P:1@196AL R00B000042940010B00004303005000
EDEO A  000687777P:1@196ARBR00B000038740010B00003883001010
EDEO A  000687778N:1@196AXPR00B000054400020B00005443019000
EDEO A  000687779P:1@196BCER00B000024040560B00002408013000
EDEO A  000687780N:1@196ALAR00B000013590080B00001360475040  TB0000000013590000009TRIM   NB0000000013600000475       
EDEO A  000687781N:1@196ANFR00B000067940090B00006797008010
EDEO A  000687782N:1@196A  R00B000036400160B00003641005010
EDEO A  000687783X:1@196ARBR00B000038480010B00003910001000
EDEO A  000687784N:1@196BBDR00B000041050460B00004106018010
EDEO A  000687785N:1@196BECR00B000053590010B00005366001010
EDEO A  000687786N:1@196ABTR00B000044190290B00004421014010
EDEO A  000687787P:1@196AFLR00B000046660030B00004674004000
EDEO A  000687788X:1@196ASAR00B000061350010B00006222001000
EDEO A  000687789B:1@196BK R00B000034250010B00003475001000
EBEO A  000687790N:1@196AHCp            0    AAAR  B0000000114790000010B0000000115300000004         10
EDEO A  000687791P:1@196BCER00B000024040560B00002408018060NB000024050030PB000024080180
EDEO A  000687792X:1@196ADPR00B000045780010B00004633001000
EDEO A  000687793N:1@205ANFR00B000067940090B00006797006010
EDEO A  000687794B:1@205BK R00B000034250010B00003475001000
EDEO A  000687795X:1@205AVPR00B000028770010B00002931001000
EDEO A  000687796X:1@205AFLR00B000046410010B00004700001000
EDEO A  000687797P:1@205ACER00B000055620020B00005569005060NB000055630010PB000055690050
EDEO A  000687798N:1@205ACSR00B000063390200B00006340003010
EDEO A  000687799P:1@205AL R00B000042960020B00004303005000
EBEO A  000687800P:1@205BBI/B           0    AAAR  B0000000003520000002B0000000003610000001         00
EDEO A  000687801P:1@205ANFR00B000067870040B00006799003000
EDEO A  000687802N:1@205AG R00B000019650010B00001967041060PB000019660040NB000019670410
EDEO A  000687803N:1@205AXPR00B000054410010B00005443019060NB000054410010PB000054420040
EDEO A  000687804N:1@205ABTR00B000044190290B00004421010010
EDEO A  000687805X:1@205BCOR00B000049330010B00004986001000
EDEO A  000687806N:1@205BHIR00B000067230100B00006724003010
EDEO A  000687807N:1@206AIGR00B000066950080B00006697074040  TB0000000066950000009BRUT   NB0000000066970000074       
EDEO A  000687808X:1@206AGER00B000045230010B00004564001000
EDEO A  000687809N:1@206ADPR00B000046030020B00004608033040  TB0000000046050000003TRIM   NB0000000046080000033       
EDEO A  000687810P:1@206AMXR00B000034410250B00003458003060NB000034550160PB000034580030
EDEO A  000687811N:1@206BAXR00B000037950010B00003796031060PB000037950020NB000037960310
EDEO A  000687812N:1@206AAAR00B000053460150B00005359015010
EDEO A  000687813P:1@206ANFR00B000067900010B00006799003000
EDEO A  000687814N:1@206BBTR00B000039960020B00003997002010
EDEO A  000687815N:1@206BF R00B000076010350B00007604021010
EDEO A  000687816N:1@206AGER00B000045380020B00004539004010
EDEO A  000687817N:1@206AA R00B000029540030B00002955007010
EDEO A  000687818P:1@206APCR00B000097580040B00009765005000
EDEO A  000687819X:1@206BF R00B000075830010B00007655001000
EDEO A  000687820N:1@206CAJR00B000062510110B00006269040010
EBEO A  000687821T:1@206BR              0    AAAR  B0000000090160000010B0000000090200000007CAES     00
EDEO A  000687822C:1@206CHKR00B000029360080B00002938001000
EDEO A  000687823P:1@206CL R00B000055000020B00005534002000
EBEO A  000687824T:1@206CIN             0    AAAR  B0000000000010000001B0000000044130000001BRUT     03  B0000000044000000001MADF   B0000000044130000001BRUT   
EBEO A  000687825T:1@206CIN             0    AAAR  B0000000044000000001B0000000044130000001CAES     00
EDEO A  000687826N:1@206CLFR00B000085500040B00008554004010
EDEO A  000687827P:1@406AMXR00B000034410250B00003458002060NB000034550160PB000034580020
EDEO A  000687828X:1@406BK R00B000034100010B00003463001000
EDEO A  000687829N:1@406AP R00B000020720010B00002095006000
EDEO A  000687830P:1@406BG R00B000056980030B00005711001000
EDEO A  000687831N:1@406ANRR00B000021720040B00002173002010
EDEO A  000687832P:1@406BHPR00B000036050080B00003623015000
EDEO A  000687833C:1@406APCR00B000097530040B00009765007000
EDEO A  000687834P:1@406BJSR00B000031650020B00003168002000
EDEO A  000687835P:1@406APCR00B000097590040B00009765005000
EDEO A  000687836N:1@406BIER00B000016660030B00001686018010
EDEO A  000687837N:1@406BK R00B000034350060B00003438008000
EDEO A  000687838N:1@706CX R00B000061940010B00006198004010
EDEO A  000687839N:1@706BLIR00B000012760060B00001279032000
EDEO A  000687840N:1@706CP R00B000051210160B00005127010000
EBEO A  000687841T:1@706BZH             0    AAAR  B0000000063450000001B0000000064490000003TRIM     00
EBEO A  000687842T:1@706COF             0    AAAR  B0000000087620000020B0000000089590000020BRUT     03  B0000000088600000010MADF   B0000000089050000002TMBR   
EDEO A  000687843P:1@706CL R00B000055010080B00005534002000
EDEO A  000687844N:1@706BNJR00B000016770010B00001685002010
EDEO A  000687845N:1@706BZHR00B000063550090B00006360003060NB000063550090PB000063600030
EBEO A  000687846T:1@706COF             0    AAAR  B0000000088600000010B0000000089050000002CAES     00
EDEO A  000687847N:1@706CMAR00B000057540060B00005755003010
EDEO A  000687848P:1@706BTUR00B000049250050B00004929001000
EDEO A  000687849N:1@706CYRR00B000025010010B00002512001010
EDEO A  000687850N:1@706CRAR00B000012000130B00001202007060MB000012000430NB000012020070
EBEO A  000687851T:1@706CAM             0    AAAR  B0000000040000000001B0000000040140000001INET     61NB000040000010NB000040040010
EDEO A  000687852N:1@706CG R00B000047430030B00004746002010
EDEO A  000687853X:1@706BNKR00B000030570010B00003168001000
EDEO A  000687854N:1@706CNQR00B000054270010B00005428002060NB000054270010PB000054280100
EDEO A  000687855M:1@706CY R00B000017400100B00001776010000
EDEO A  000687856P:1@706CL R00B000055020020B00005534002000
EDEO A  000687857N:1@706BRER00B000054830030B00005507003000
EDEO A  000687858N:1@706CSCR00B000054510020B00005457001010
EBEO A  000687859T:1@706CAM             0    AAAR  B0000000040000000001B0000000040140000001CAES     00
EDEO A  000687860X:1@706BLKR00B000143010010B00014355001000
EDEO A  000687861X:1@706CCCR00B000007770010B00000879001000
EDEO A  000687862B:1@706CMXR00B000050210010B00005045001000
EDEO A  000687863P:1@706CL R00B000055030080B00005534002000
EDEO A  000687864N:1@707CYHR00B000038300970B00003833039010
EDEO A  000687865P:1@707CBER00B000083790010B00008478003000
EDEO A  000687866P:1@707BNKR00B000030550050B00006136005000
EDEO A  000687867N:1@707CCLR00B000052450580B00005247071040  NB0000000052450000058       TB0000000052460000005BRUT   
EDEO A  000687868X:1@707CSGR00B000040540010B00004107001000
EDEO A  000687869X:1@707CMXR00B000050060010B00005060001000
EDEO A  000687870N:1@707CIRR00B000027830010B00002790004000
EDEO A  000687871X:1@707CTXR00B000066870010B00006893001000
EDEO A  000687872N:1@707BTUR00B000049270010B00004928014010
EDEO A  000687873P:1@707CBER00B000083790010B00008467003000
EDEO A  000687874N:1@707BNIR00B000079860030B00007989005010
EDEO A  000687875X:1@707CG R00B000047310010B00004758001000
EDEO A  000687876X:1@707CPER00B000018120010B00001868001000
EDEO A  000687877X:1@707COLR00B000053400010B00005418001000
EDEO A  000687878B:1@707BSXR00B000024420010B00002464001000
EBEO A  000687879T:1@707CA              0    AAAR  B0000000027070000020B0000000027500000003TRIM     03  B0000000027070000020TRIM   B0000000027280000002TMBR   
EDEO A  000687880P:1@707CTXR00B000067850030B00006793003000
EDEO A  000687881N:1@707CPVR00B000027200030B00002736006010
EDEO A  000687882X:1@707CMKR00B000007930010B00000865001000
EDEO A  000687883P:1@707CVXR00B000056550110B00005660011000
EDEO A  000687884N:1@707COPR00B000061200040B00006124001000
EDEO A  000687885P:1@707BNKR00B000030550050B00006136007000
EDEO A  000687886X:1@707CG R00B000047320010B00004758001000
EDEO A  000687887P:1@707CIXR00B000017050030B00001911002060PB000017050030NB000017340020
EDEO A  000687888N:1@707CMXR00B000050310090B00005035001010
EDEO A  000687889P:1@707BTUR00B000049230050B00004929001000
EDEO A  000687890B:1@707CVXR00B000056300100B00005708001000
EBEO A  000687891T:1@707CA              0    AAAR  B0000000027070000020B0000000027280000002CAES     00
EDEO A  000687892P:1@708BNKR00B000030550050B00003089003060NB000030780030PB000030890030
EDEO A  000687893N:1@708CCIR00B000031490050B00003155001010
EBEO A  000687894N:1@708CLPpC           0    AAAR  B0000000025600000027B0000000025680000077         10
EDEO A  000687895P:1@708CMXR00B000050320020B00005114008060PB000050320020NB000050350010
EDEO A  000687896B:1@708CVXR00B000056300100B00005708001000
EBEO A  000687897T:1@708CA              0    AAAR  B0000000027070000020B0000000027170000003TRIM     01
EDEO A  000687898N:1@708CHBR00B000015300020B00001534004000
EDEO A  000687899N:1@708CHER00B000055690010B00005595002000
EDEO A  000687900B:1@708CVXR00B000056300100B00005708001000
EBEO A  000687901T:1@708CA              0    AAAR  B0000000027070000020B0000000027170000003CAES     00
EDEO A  000687902N:1@708CCLR00B000052450580B00005247070000
EDEO A  000687903P:1@708CHKR00B000029360060B00002938001000
EDEO A  000687904X:1@708CTXR00B000066870010B00006892001000
EDEO A  000687905P:1@715CBHR00B000033540020B00003380001060NB000033770010NB000033800010
EDEO A  000687906N:1@715CHTR00B000019100660B00001913019010
EDEO A  000687907X:1@715CVXR00B000056320010B00005684001000
EDEO A  000687908P:1@715CBHR00B000033760020B00003380001000
EDEO A  000687909N:1@715CIRR00B000027800020B00002790004000
EDEO A  000687910X:1@715CVXR00B000056320010B00005683001000
EDEO A  000687911P:1@715CBER00B000083790010B00008467005000
EDEO A  000687912P:1@715CTXR00B000067850030B00006795003000
EDEO A  000687913N:1@715CAIR00B000060910030B00006106002060NB000060910030PB000061020010
EDEO A  000687914P:1@715CVXR00B000056550110B00005659010000
EDEO A  000687915X:1@715CBAR00B000016770010B00001776001000
EBEO A  000687916T:1@715CVX             0    AAAR  D0000005658000000001D0000400000000000001BTRD     00
EDEO A  000687917P:1@715CBHR00B000033760020B00003379001060NB000033770010PB000033790010
EDEO A  000687918P:1@716APCR00B000097600040B00009765005000
EDEO A  000687919N:1@716BK R00B000034350090B00003438008000
EDEO A  000687920P:1@716AXAR00B000035630250B00003569001000
EDEO A  000687921X:1@716ACER00B000055380010B00005595001000
EDEO A  000687922P:1@716BHPR00B000036170030B00003623015000
EDEO A  000687923C:1@716APCR00B000097330010B00009765007000
EDEO A  000687924P:1@716AAIR00B000017650020B00001801002000
EDEO A  000687925P:1@716AZNR00B000046130030B00004617003000
EDEO A  000687926P:1@716BJSR00B000031650020B00003169003000
EDEO A  000687927N:1@716ALGR00B000023580010B00002400002000
EDEO A  000687928M:1@716BBIR00B000003940100B00000412001000
EDEO A  000687929N:1@716AF R00B000028790110B00002881001010
EDEO A  000687930P:1@716AAIR00B000017660080B00001801002000
EDEO A  000687931P:1@716AN R00B000021170050B00002122005010
EDEO A  000687932N:1@716ATGR00B000035810030B00003582002010
EDEO A  000687933P:1@716AXAR00B000035640250B00003569001000
EDEO A  000687934P:1@716BECR00B000053590010B00005443007000
EDEO A  000687935N:1@716AEER00B000051110010B00005113001010
EDEO A  000687936N:1@716BERR00B000057750010B00005778005060PB000057770010NB000057780050
EDEO A  000687937N:1@716ALFR00B000024930070B00002500002000
EDEO A  000687938P:1@716AAIR00B000017670020B00001801002000
EDEO A  000687939N:1@716ASNR00B000047780010B00004779009010
EDEO A  000687940N:1@716AVYR00B000060180020B00006021002010
EDEO A  000687941P:1@716ANNR00B000036600030B00003680008000
EDEO A  000687942P:1@716ACSR00B000063360050B00006343002000
EDEO A  000687943P:1@716BAXR00B000037380020B00003814008060NB000037950010NB000037960310
EBEO A  000687944T:1@716APA             0    AAAR  B0000000066670000010B0000000066720000010INET     01
EDEO A  000687945C:1@716BJSR00B000031640120B00003169003000
EDEO A  000687946N:1@716AETR00B000051620010B00005163046010
EDEO A  000687947N:1@716ASAR00B000061600020B00006197007000
EDEO A  000687948B:1@716AXPR00B000053910010B00005493001000
EDEO A  000687949N:1@716BAPR00B000029510010B00002965001010
EDEO A  000687950N:1@716AL R00B000043000570B00004313001060NB000043000570PB000043030050
EDEO A  000687951N:1@716AA R00B000029540030B00002955008010
EDEO A  000687952X:1@716BG R00B000056620010B00005770001000
EBEO A  000687953T:1@716APA             0    AAAR  B0000000066670000010B0000000066720000010CAES     00
EDEO A  000687954N:1@716ADXR00B000013050060B00001306009010
EDEO A  000687955N:1@716BC R00B000039740210B00003977005010
EDEO A  000687956P:1@716ARAR00B000049060020B00004934001060PB000049060020NB000049340020
EDEO A  000687957P:1@716BG R00B000056410020B00005711001000
EDEO A  000687958N:1@716ABTR00B000044190320B00004421003010
EDEO A  000687959X:1@716AXRR00B000030950010B00003200001000
EDEO A  000687960N:1@716ALKR00B000031950040B00003201001010
EDEO A  000687961P:1@716BAXR00B000037920040B00003814008000
EDEO A  000687962P:1@716ABTR00B000044170100B00004423007000
EDEO A  000687963N:1@725AMDR00B000040580010B00004060061000
EDEO A  000687964N:1@725ASNR00B000047780100B00004779009010
EDEO A  000687965X:1@725AGER00B000045230010B00004561001000
EDEO A  000687966P:1@725BHIR00B000067200050B00006726006000
EDEO A  000687967P:1@725BABR00B000057820010B00005800001000
EDEO A  000687968P:1@725BBTR00B000039480030B00003999006000
EDEO A  000687969N:1@725AGER00B000045330110B00004538002010
EDEO A  000687970N:1@725AL R00B000043000550B00004313001060NB000043000550PB000043030050
EDEO A  000687971N:1@725AU R00B000052080280B00005218001000
EDEO A  000687972N:1@725ABTR00B000044190320B00004421001010
EDEO A  000687973N:1@725AXLR00B000016850050B00001696001010
EDEO A  000687974P:1@725ANFR00B000067900060B00006799003000
EDEO A  000687975N:1@725BERR00B000057750030B00005778005000
EDEO A  000687976B:1@725BBTR00B000039860010B00004007001000
EDEO A  000687977B:1@725AXPR00B000053910010B00005493001000
EDEO A  000687978P:1@726BBTR00B000039490070B00003999006000
EDEO A  000687979N:1@726AGUR00B000025180010B00002520003010
EDEO A  000687980N:1@726ARJR00B000028160050B00002831002060NB000028160050PB000028310030
EDEO A  000687981B:1@726BHIR00B000067130010B00006734001000
EDEO A  000687982P:1@726AXPR00B000054390040B00005443007060NB000054410010NB000054430190
EDEO A  000687983C:1@726ACER00B000055230010B00005606001000
EDEO A  000687984P:1@726BAYR00B000040580280B00004064002000
EDEO A  000687985X:1@726ANTR00B000055040010B00005557001000
EDEO A  000687986P:1@726BA R00B000073490010B00007354004000
EDEO A  000687987P:1@726BF R00B000075930300B00007605030000
EDEO A  000687988N:1@726AHCR00B000136850010B00013706002000
EDEO A  000687989P:1@726BBTR00B000039960030B00003999006060PB000039960030NB000039970020
EDEO A  000687990X:1@726AXLR00B000016650010B00001718001000
EDEO A  000687991X:1@726ARAR00B000048430010B00004969001000
EDEO A  000687992C:1@726ACER00B000055230010B00005610001000
EDEO A  000687993B:1@726ANFR00B000067840010B00006807001000
EDEO A  000687994X:1@726AXPR00B000054160010B00005468001000
EDEO A  000687995N:1@726ABXR00B000027330180B00002734036010
EDEO A  000687996P:1@726BG R00B000056980030B00005711001000
EBEO A  000687997N:1@726BBI/B           0    AAAR  B0000000003540000006B0000000003610000013         40  NB0000000003540000006       TB0000000003610000020TRIM   
EDEO A  000687998P:1@726BHER00B000034950050B00003578003060NB000035710050NB000035780040
EDEO A  000687999X:1@726BC R00B000039270010B00004028001000
EDEO A  000688000B:1@726ANFR00B000067840010B00006807001000
EBEO A  000688001T:1@726BA              0    AAAR  B0000000072090000020B0000000074290000020BRUT     00
EDEO A  000688002N:1@726AAVR00B000019400150B00001947224010
EDEO A  000688003P:1@726ANFR00B000067900060B00006798003000
EDEO A  000688004C:1@726BHIR00B000067200050B00006726006000
EDEO A  000688005P:1@726ACER00B000055620020B00005567004060NB000055630010PB000055670040
EBEO A  000688006T:1@727CVX             0    AAAR  D0000005657000000001D0000400000000000001BTRD     63NB000056570080NB000056580050  D0000005657000000001BTRD   B0000000056600000001TRIM   
EDEO A  000688007B:1@727CALR00B000023250010B00002350001000
EBEO A  000688008T:1@727CVX             0    AAAR  B0000000056570000001B0000000056600000002CAES     00
EDEO A  000688009B:1@727BZHR00B000063450010B00006370001000
EDEO A  000688010X:1@727CBER00B000083560010B00008412001000
EDEO A  000688011P:1@727CTXR00B000067850030B00006794003000
EDEO A  000688012X:1@727CBHR00B000033520010B00003405001000
EDEO A  000688013N:1@727CTBR00B000015120010B00001513007010
EDEO A  000688014X:1@727CALR00B000023100010B00002365001000
EDEO A  000688015X:1@727C  R00B000046480010B00004686001000
EDEO A  000688016X:1@727BZHR00B000062550010B00007135001000
EDEO A  000688017C:1@727C  R00B000046620010B00004686001000
EDEO A  000688018P:1@727CAJR00B000062520030B00006348003060PB000062520030NB000062690400
EDEO A  000688019X:1@936BBTR00B000039710010B00004022001000
EDEO A  000688020N:1@936BJSR00B000031650260B00003166051010
EDEO A  000688021N:1@936APCR00B000097610050B00009762020010
EDEO A  000688022P:1@936BBTR00B000039960030B00004017001000
EDEO A  000688023P:1@936AAIR00B000017680080B00001801002000
EDEO A  000688024X:1@936BHIR00B000066230010B00006824001000
EDEO A  000688025X:1@936ANFR00B000067690010B00006822001000
EDEO A  000688026P:1@936BBTR00B000039960030B00004000003000
EDEO A  000688027X:1@936BF R00B000075830010B00007654001000
EDEO A  000688028P:1@936AAIR00B000017690020B00001801002000
EDEO A  000688029P:1@936ACER00B000055630030B00005569005010
EDEO A  000688030X:1@936A  R00B000036150010B00003666001000
EDEO A  000688031N:1A235CNFR00B000050660200B00005069001060PB000050670010NB000050690010
EDEO A  000688032N:1A235CATR00B000073020010B00007305028000
EBEO A  000688033N:1A235BOL             4    AAAR  B0000000069990000007B0000000070030000003         10
EBEO A  000688034T:1A235CHK             0    AAAR  B0000000029350000010B0000000029380000001MADF     00
EDEO A  000688035N:1A235CYDR00B000007490500B00000756004000
EDEO A  000688036N:1A235BRYR00B000066580020B00006664004010
EBEO A  000688037T:1A235CCI             0    AAAR  D0000003149000000002D0000200000000000001BRUT     03  D0000003149000000002BRUT   B0000000032000000013TRIM   
EDEO A  000688038N:1A235COGR00B000045400170B00004544004010
EDEO A  000688039C:1A235CALR00B000022950010B00002380001000
EBEO A  000688040T:1A235CHK             0    AAAR  B0000000029350000012B0000000029380000004CAES     00
EDEO A  000688041N:1A235BRSR00B000029980030B00003000005010
EDEO A  000688042N:1A235CMZR00B000012390020B00001244002010
EBEO A  000688043T:1A236CCI             0    AAAR  B0000000031490000002B0000000032000000013CAES     00
EDEO A  000688044N:1A236CALR00B000023350110B00002339001010
EDEO A  000688045P:1A236CTXR00B000067860030B00006794003000
EBEO A  000688046N:1A236CLPpC           0    AAAR  B0000000025600000027B0000000025670000004         10
EDEO A  000688047N:1A236BVNR00B000026740020B00002675100010
EDEO A  000688048N:1A236BNIR00B000079860030B00007989008010
EDEO A  000688049B:1A236CSCR00B000054410010B00005497030000
EDEO A  000688050N:1A236CNER00B000019160150B00001918005010
EDEO A  000688051N:1A236CG R00B000047430030B00004744002010
EDEO A  000688052N:1A236CBBR00B000004140070B00000416011010
EDEO A  000688053X:1A236CX R00B000061690010B00006223001000
EDEO A  000688054N:1A236CHKR00B000029370010B00002938001040  NB0000000029370000001       TB0000000029380000003BRUT   
EDEO A  000688055N:1A236BRMR00B000015460690B00001548029010
EDEO A  000688056X:1A236CP R00B000050960010B00005152001000
EDEO A  000688057X:1A236BNIR00B000079610010B00008014001000
EDEO A  000688058N:1A236CNFR00B000050670020B00005069001010
EDEO A  000688059N:1A236CUKR00B000055600300B00005571020010
EBEO A  000688060T:1A236CCI             0    AAAR  D0000000001000000001D0000200000000000001BRUT     03  B0000000029170000001CDRG   B0000000032000000013TRIM   
EDEO A  000688061C:1A236BZHR00B000063150010B00006400001000
EDEO A  000688062X:1A236CHER00B000055440010B00005620001000
EDEO A  000688063X:1A236BRER00B000054580010B00005532001000
EDEO A  000688064X:1A236CSCR00B000054270010B00005482001000
EDEO A  000688065P:1A236BNSR00B000042530180B00004261035060PB000042530180NB000042590030
EDEO A  000688066N:1A236CMZR00B000012400020B00001244002010
EDEO A  000688067N:1A236CVXR00B000056570080B00005658001010
EBEO A  000688068T:1A236CCI             0    AAAR  B0000000029170000001B0000000032000000013CAES     00
EDEO A  000688069B:1A236BZHR00B000063450010B00006370001000
EDEO A  000688070N:1A236CHGR00B000048980020B00004920002010
EDEO A  000688071N:1A237BW R00B000017450050B00001754001010
EDEO A  000688072N:1A237CR R00B000039020050B00003907001010
EDEO A  000688073P:1A237BNSR00B000042530180B00004258001010
EDEO A  000688074P:1A237CMXR00B000050320030B00005114008060PB000050320030NB000050350010
EDEO A  000688075N:1A237CYHR00B000038300970B00003833047010
EDEO A  000688076P:1A237CCIR00B000031490020B00003156004000
EDEO A  000688077X:1A237CAIR00B000060660010B00006131001000
EDEO A  000688078P:1A237CEGR00B000059000010B00011820005000
EDEO A  000688079N:1A237CAOR00B000016000510B00001601057010
EDEO A  000688080P:1A237COPR00B000061200020B00006123002000
EDEO A  000688081N:1A237CNOR00B000024840170B00002487087010
EDEO A  000688082P:1A237CTXR00B000067860030B00006796003000
EDEO A  000688083B:1A237CCLR00B000052350010B00005257001000
EDEO A  000688084N:1A237CBSR00B000024501780B00002461034060PB000024590010NB000024610340
EDEO A  000688085P:1A237CSCR00B000054490010B00005460002000
EDEO A  000688086N:1A237BHIR00B000067230100B00006724001010
EDEO A  000688087N:1A237BCMR00B000070340010B00007041001000
EBEO A  000688088T:1A237ABT             0    AAAR  B0000000043190000001B0000000045210000001SBSH     00
EDEO A  000688089N:1A237AEER00B000051100060B00005114003010
EDEO A  000688090N:1A237AGUR00B000025170010B00002520004060PB000025170020NB000025200040
EDEO A  000688091N:1A237BHPR00B000036200340B00003623093010
EDEO A  000688092N:1A237AA R00B000029540030B00002955007010
EDEO A  000688093P:1A237BBTR00B000039960030B00004000005000
EDEO A  000688094P:1A237AGRR00B000013570050B00001366004000
EDEO A  000688095N:1A237AXER00B000046810010B00004683001010
EDEO A  000688096N:1A237BG R00B000057020010B00005711036010
EBEO A  000688097T:1A237AKS             0    AAAR  B0000000010620000001B0000000011670000001SBSH     00
EDEO A  000688098X:1A237ANRR00B000021470010B00002198001000
EDEO A  000688099P:1A237ACER00B000055630040B00005569005010
EBEO A  000688100T:1A245ADI             0    AAAR  B0000000038540000001B0000000038610000001TMBR     01
EDEO A  000688101N:1A245ARCR00B000009500020B00000954002010
EDEO A  000688102P:1A245BCER00B000024040260B00002408005060NB000024050030NB000024080170
EDEO A  000688103N:1A245AZOR00B000098470040B00009859003000
EDEO A  000688104N:1A245BF R00B000076020010B00007604021010
EDEO A  000688105N:1A245ABCR00B000046580040B00004659010010
EBEO A  000688106T:1A245ADI             0    AAAR  B0000000038540000001B0000000038610000001CAES     00
EDEO A  000688107P:1A245AGUR00B000025170010B00002520001060NB000025170010NB000025200040
EBEO A  000688108T:1A245AN              0    AAAR  B0000000020920000001B0000000021970000001SBSH     00
EDEO A  000688109P:1A245ATIR00B000051860030B00005197003000
EDEO A  000688110N:1A245AVZR00B000019060030B00001910002010
EDEO A  000688111N:1A245A  R00B000036400160B00003641001010
EDEO A  000688112P:1A245AGRR00B000013570050B00001367004000
EDEO A  000688113P:1A245AL R00B000042960020B00004302017060NB000043000550PB000043020170
EDEO A  000688114N:1A245BENR00B000103590010B00010361001010
EDEO A  000688115P:1A245AMRR00B000025110030B00002518007060NB000025111060PB000025180070
EDEO A  000688116N:1A245AVXR00B000016580020B00001659003010
EDEO A  000688117N:1A245AIGR00B000066950080B00006697081040  TB0000000066950000009BRUT   NB0000000066970000081       
EBEO A  000688118T:1A245ARI             0    AAAR  B0000000045100000001B0000000046110000001SBSH     03  D0000004530000000020BRUT   B0000000046110000001SBSH   
EDEO A  000688119N:1A245BERR00B000057750030B00005778003060PB000057770010NB000057780030
EDEO A  000688120N:1A245ACPR00B000042500040B00004325005010
EDEO A  000688121N:1A245APAR00B000066680010B00006670001010
EDEO A  000688122N:1A245AFLR00B000046660040B00004671002010
EBEO A  000688123T:1A245AVY             0    AAAR  B0000000059170000001B0000000061210000001SBSH     03  B0000000059170000001SBSH   B0000000060210000001TRIM   
EDEO A  000688124P:1A246ABTR00B000044170100B00004424001000
EDEO A  000688125N:1A246BDXR00B000064650110B00006471008000
EDEO A  000688126N:1A246AL R00B000043000010B00004313001060NB000043000010PB000043020170
EDEO A  000688127P:1A246AGRR00B000013570050B00001368004000
EBEO A  000688128T:1A246ARI             0    AAAR  B0000000045300000020B0000000046110000001CAES     00
EBEO A  000688129T:1A246AVY             0    AAAR  B0000000059170000001B0000000060210000001CAES     00
EBEO A  000688130T:1A246APC             0    AAAR  B0000000097110000001B0000000099620000001SBSH     00
EDEO A  000688131X:1A246ATGR00B000035690010B00003599001000
EDEO A  000688132P:1A246AIVR00B000044240020B00004429001000
EDEO A  000688133N:1A246ACLR00B000114750010B00011477001010
EDEO A  000688134P:1A246BACR00B000046000480B00004601024060PB000046000480NB000046011300
EDEO A  000688135P:1A246APCR00B000097600040B00009826008000
EDEO A  000688136P:1A246ABTR00B000044190020B00004424001000
EDEO A  000688137P:1A246AGRR00B000013570090B00001368004000
EDEO A  000688138P:1A246APCR00B000097600040B00009767005000
EDEO A  000688139N:1A246ASOR00B000027960080B00002797001010
EDEO A  000688140N:1A246AHCR00B000136850010B00013705001000
EDEO A  000688141P:1A246AXLR00B000016030050B00001695003060NB000016850050PB000016950030
EDEO A  000688142N:1A246BBLR00B000033860100B00003393016010
EDEO A  000688143X:1A246BERR00B000056750010B00005878001000
EDEO A  000688144P:1A246AXLR00B000016030050B00001695009060NB000016850050PB000016950090
EDEO A  000688145P:1A246ACER00B000055630030B00005569005010
EDEO A  000688146N:1A246AETR00B000051620080B00005163046010
EDEO A  000688147P:1A246APCR00B000097580040B00009764005000
EBEO A  000688148T:1A246BG              0    AAAR  B0000000053970000001B0000000060750000001TMBR     00
EBEO A  000688149N:1A246AHCp            0    AAAR  B0000000114790000015B0000000115300000004         10
EDEO A  000688150N:1A246AYER00B000035670020B00003571001000
EDEO A  000688151N:1A255AMBR00B000053910090B00005394004010
EDEO A  000688152N:1A255AETR00B000051620080B00005163024010
EDEO A  000688153N:1A255BAXR00B000037950010B00003796030010
EDEO A  000688154N:1A255AWCR00B000020440010B00002057005010
EDEO A  000688155X:1A255AVYR00B000059930010B00006046001000
EDEO A  000688156N:1A255BDER00B000015600100B00001565003010
EDEO A  000688157N:1A255ALLR00B000054610010B00005465002000
EDEO A  000688158N:1A255ADMR00B000031780160B00003179032010
EDEO A  000688159X:1A255AXLR00B000016650010B00001723001000
EDEO A  000688160N:1A255AIGR00B000066950080B00006697075040  TB0000000066950000009BRUT   NB0000000066970000075       
EDEO A  000688161N:1A255ADMR00B000031780170B00003179032010
EDEO A  000688162P:1A255AXLR00B000016030050B00001695006060NB000016850050PB000016950060
EDEO A  000688163N:1A255BAMR00B000054780030B00005480001010
EDEO A  000688164X:1A255ALGR00B000023330010B00002425001000
EDEO A  000688165P:1A255AXPR00B000054400010B00005443007000
EDEO A  000688166N:1A256CVHR00B000059800010B00005981049010
EDEO A  000688167P:1A256CEGR00B000059000010B00005984005000
EDEO A  000688168P:1A256CSCR00B000054490010B00005460003000
EDEO A  000688169P:1A256CTXR00B000067870030B00006796003000
EDEO A  000688170N:1A256C  R00B000046730090B00004674004010
EDEO A  000688171X:1A256CG R00B000047310010B00004758001000
EDEO A  000688172P:1A256CTXR00B000067870030B00006795003000
EDEO A  000688173P:1A256CBER00B000083830010B00008467005060PB000083830010NB000083870030
EDEO A  000688174X:1A256CCLR00B000051450010B00005347001000
EDEO A  000688175N:1A256CATR00B000073020010B00007305032000
EDEO A  000688176X:1A256CCIR00B000031240010B00003180001000
EDEO A  000688177B:1A256CCLR00B000052350010B00005257001000
EDEO A  000688178P:1A256CCIR00B000031490020B00003155002060NB000031490050PB000031550020
EDEO A  000688179N:1A256CCKR00B000018160090B00001822002010
EDEO A  000688180N:1A457AGRR00B000013640200B00001365019010
EDEO A  000688181X:1A457ALKR00B000031700010B00003226001000
EDEO A  000688182N:1A457BBTR00B000039960030B00003997002000
EDEO A  000688183N:1A457ADXR00B000013050080B00001306009010
EDEO A  000688184X:1A457AHCR00B000135590010B00013846001000
EBEO A  000688185N:1A457BBI/B           0    AAAR  B0000000003550000024B0000000003610000013         40  NB0000000003550000024       TB0000000003610000020TRIM   
EDEO A  000688186X:1A457AF R00B000028540010B00002906001000
EDEO A  000688187X:1A457AGER00B000045180010B00004560001000
EDEO A  000688188X:1A457BC R00B000039260010B00004028001000
EDEO A  000688189P:1A457BDCR00B000026050090B00002607001060PB000026050090NB000026050010
EDEO A  000688190P:1A457BCER00B000024040260B00002408010000
EDEO A  000688191P:1A457BDCR00B000026050270B00002607001060PB000026050270NB000026050010
EDEO A  000688192N:1A457BBWR00B000028560030B00002857001010
EDEO A  000688193N:1A756BLSR00B000031570020B00003158001010
EDEO A  000688194N:1A756CLFR00B000085500040B00008554005010
EDEO A  000688195N:1A756CVXR00B000056570080B00005659005060NB000056570080PB000056590100
EDEO A  000688196P:1A756BVNR00B000025910050B00002676002000
EDEO A  000688197P:1A756CSCR00B000054510010B00005460003000
EDEO A  000688198X:1A756CTBR00B000014870010B00001538001000
EDEO A  000688199N:1A756CPPR00B000026301500B00002636006010
EDEO A  000688200N:1A756BSXR00B000024520010B00002454006010
EDEO A  000688201N:1A756CBHR00B000033770010B00003380002000
EDEO A  000688202P:1A756CNIR00B000094150010B00009433002000
EDEO A  000688203N:1A756CHZR00B000029050180B00002907004010
EDEO A  000688204P:1A756BMYR00B000023070050B00002309010000
EDEO A  000688205N:1A756CEGR00B000059000020B00005903002010
EDEO A  000688206N:1A756BLSR00B000031570020B00003160001060NB000031570020PB000031590100
EDEO A  000688207N:1A756CQBR00B000017260020B00001727004010
EDEO A  000688208N:1A756CMOR00B000006990330B00000703004040  NB0000000006990000033       TB0000000007000000041TRIM   
EDEO A  000688209N:1A756BVFR00B000025400130B00002543008010
EDEO A  000688210N:1A756CBSR00B000024501780B00002461016060PB000024590010PB000024610160
EDEO A  000688211N:1A756BLKR00B000143260020B00014335001010
EDEO A  000688212P:1A756CTXR00B000067850030B00006795003000
EDEO A  000688213P:1A756CJRR00B000031460530B00003167013010
EDEO A  000688214N:1A756CRAR00B000012000130B00001202012060MB000012000430NB000012020120
EDEO A  000688215P:1A756CFCR00B000034740040B00003485002000
EDEO A  000688216N:1A756BLKR00B000143260020B00014334001010
EDEO A  000688217P:1A756CMER00B000436670020B00043701003000
EDEO A  000688218N:1A756BR R00B000090170030B00009020001000
EDEO A  000688219N:1A756CAGR00B000021050590B00002108002010
EBEO A  000688220T:1A756CTX             0    AAAR  B0000000067380000001B0000000069400000001SBSH     00
EDEO A  000688221C:1A757CHKR00B000029370060B00002938001040  CB0000000029370000006       TB0000000029380000003BRUT   
EDEO A  000688222N:1A757CPOR00B000027430010B00002746011010
EDEO A  000688223N:1A757CFDR00B000009770030B00000982005060NB000009770030PB000009800050
EDEO A  000688224N:1A757COGR00B000045430010B00004544004010
EBEO A  000688225T:1A757CYN             0    AAAR  B0000000074740000001B0000000077900000001SBSH     01
EDEO A  000688226N:1A757CRKR00B000028170010B00002819005010
EDEO A  000688227N:1A757CMIR00B000108350010B00010851004010
EBEO A  000688228T:1A757CYN             0    AAAR  B0000000074740000001B0000000077900000001CAES     00
EDEO A  000688229N:1A757BR R00B000090170030B00009021009000
EDEO A  000688230N:1A757CRKR00B000028170010B00002818001010
EDEO A  000688231N:1A757BZHR00B000063550100B00006360003060NB000063550100PB000063600030
EDEO A  000688232N:1A757CIRR00B000027810010B00002790004000
EDEO A  000688233P:1A757CFCR00B000034740040B00003481004000
EDEO A  000688234N:1A757BNKR00B000030770010B00003090002060NB000030770010PB000030890030
EDEO A  000688235X:1A757CNFR00B000050250010B00005102001000
EDEO A  000688236X:1A757BRYR00B000065580010B00006764001000
EDEO A  000688237N:1A757CVXR00B000056550040B00005658003040  TD0000005657000000001BTRD   NB0000000056580000003       
EBEO A  000688238P:1A757CBpB            0    AAAR  B0000000000010000001B0000000068160000001         60NB000033700300NB000033820470
EDEO A  000688239N:1A757CIBR00B000032640020B00003281003000
EDEO A  000688240N:1A757CSLR00B000077990010B00007804001010
EDEO A  000688241P:1A757CCLR00B000052440020B00005247005000
EDEO A  000688242X:1A757COGR00B000045150010B00004569001000
EDEO A  000688243P:1A757CY R00B000017450080B00001748004000
EDEO A  000688244N:1A757C  R00B000046730090B00004674006010
EDEO A  000688245N:1A757CRLR00B000048640010B00004869007010
EDEO A  000688246X:1A757CNFR00B000050260010B00005102001000
EDEO A  000688247P:1A757CI R00B000123270030B00012414007000
EDEO A  000688248N:1A757CTXR00B000067880010B00006791001010
EDEO A  000688249P:1A757CEGR00B000059000010B00005909001000
EDEO A  000688250N:1A757CSGR00B000040790500B00004081001010
EDEO A  000688251X:1A757CALR00B000023100010B00002364001000
EDEO A  000688252N:1A757CNFR00B000050680010B00005069001010
EDEO A  000688253N:1A757CCUR00B000028210050B00002822007010
EDEO A  000688254B:1A757CALR00B000023250010B00002349001000
EDEO A  000688255X:1A757CHGR00B000048860010B00004932001000
EDEO A  000688256X:1A757CG R00B000047310010B00004756001000
EDEO A  000688257N:1A757CVSR00B000028680510B00002869005010
EDEO A  000688258N:1A757CPSR00B000044680020B00004469005010
EDEO A  000688259N:1A757COLR00B000053750030B00005379007010
EDEO A  000688260P:1A757BZHR00B000063540010B00006362003060NB000063550100NB000063600030
EDEO A  000688261P:1A757CKHR00B000072940050B00007383003000
EDEO A  000688262P:1A757CE R00B000000010080B00004372007000
EDEO A  000688263P:1A765CVXR00B000056550110B00005660011000
EDEO A  000688264N:1A765CR R00B000039020050B00003908004010
EDEO A  000688265N:1A765CMXR00B000050310060B00005035001000
EDEO A  000688266X:1A765C  R00B000046480010B00004685001000
EDEO A  000688267P:1A765CKPR00B000029100010B00002924002000
EDEO A  000688268N:1A765CCJR00B000036660080B00003667016010
EDEO A  000688269N:1A765CTLR00B000036500030B00003651002010
EDEO A  000688270N:1A765C  R00B000046730090B00004674004010
EDEO A  000688271N:1A765CR R00B000039020050B00003907001010
EDEO A  000688272N:1A765CNIR00B000094150040B00009433005010
EDEO A  000688273N:1A765CCIR00B000031490050B00003155003010
EDEO A  000688274X:1A765CUKR00B000055350010B00005596001000
EDEO A  000688275C:1A765C  R00B000046620010B00004685001000
EBEO A  000688276T:1A765CVX             0    AAAR  B0000000056560000001B0000000056600000001BRUT     00
EDEO A  000688277N:1A765CBMR00B000018680010B00001873013010
EDEO A  000688278P:1A766APCR00B000097590040B00009764005000
EDEO A  000688279P:1A766AXLR00B000016860020B00001695006010
EDEO A  000688280P:1A766ARJR00B000028130010B00002831002060NB000028160050NB000028310020
EDEO A  000688281N:1A766AMRR00B000025111050B00002519008060NB000025111050PB000025180070
EDEO A  000688282P:1A766ACER00B000055630030B00005569004010
EDEO A  000688283P:1A766BF R00B000075960300B00007608031000
EDEO A  000688284N:1A766AGER00B000045330110B00004538003010
EBEO A  000688285T:1A766AKS             0    AAAR  D0000001131000000005D0000200000000000001BRUT     03  D0000001131000000005BRUT   B0000000011510000005MADF   
EDEO A  000688286N:1A766BA R00B000073500030B00007352008040  TB0000000073500000010TRIM   NB0000000073520000008       
EDEO A  000688287C:1A766APCR00B000097530040B00009765007000
EDEO A  000688288N:1A766BG R00B000057020010B00005711037010
EDEO A  000688289N:1A766AGER00B000045330110B00004538005010
EBEO A  000688290T:1A766AKS             0    AAAR  B0000000011310000005B0000000011510000005CAES     00
EDEO A  000688291C:1A766APCR00B000097530040B00009763005000
EDEO A  000688292P:1A766BCER00B000024040520B00002408010000
EDEO A  000688293P:1A766AXLR00B000016860020B00001701002060PB000016860020NB000016960010
EDEO A  000688294N:1A766ARCR00B000009500020B00000951004010
EDEO A  000688295N:1A766ABXR00B000027330180B00002734034010
EDEO A  000688296N:1A766BF R00B000076020110B00007604021010
EDEO A  000688297N:1A766AEER00B000051110020B00005114015010
EDEO A  000688298P:1A766AL R00B000042960020B00004303005060NB000043000010PB000043030050
EDEO A  000688299B:1A766APAR00B000066580010B00006680001000
EDEO A  000688300P:1A766AXLR00B000016860020B00001701008000
EDEO A  000688301N:1A766BBWR00B000028570070B00002875001010
EDEO A  000688302P:1A766ARAR00B000049060040B00004934001060PB000049060040NB000049340020
EBEO A  000688303N:1A766AEM        A    0    AAAR  B0000000025940000008B0000000025960000017         00
EDEO A  000688304P:1A766A  R00B000036400090B00003643001000
EDEO A  000688305N:1A766BDXR00B000064650110B00006471007000
EDEO A  000688306X:1A766ARCR00B000009250010B00000979001000
EDEO A  000688307P:1A766ALGR00B000023580030B00002400001060PB000023580030NB000024000020
EDEO A  000688308P:1A766AXPR00B000054380020B00005443007000
EDEO A  000688309N:1A766AMNR00B000060250010B00006026004010
EDEO A  000688310N:1A766BBTR00B000039960010B00003997002000
EDEO A  000688311P:1A766AGUR00B000025180010B00002520001060PB000025180010NB000025200040
EDEO A  000688312P:1A766AZNR00B000046120030B00004617003000
EDEO A  000688313P:1A766AEPR00B000036540020B00003657002000
EDEO A  000688314X:1A766BF R00B000075840010B00007654001000
EDEO A  000688315P:1A766BCER00B000024040520B00002408013000
EDEO A  000688316P:1A766ABTR00B000044190060B00004424001000
EDEO A  000688317P:1A766ARAR00B000049060060B00004934001060PB000049060060NB000049340020
EDEO A  000688318P:1A766AEER00B000050320050B00005300001000
EDEO A  000688319N:1A775AXLR00B000016850050B00001690001060PB000016860020NB000016900010
EDEO A  000688320N:1A775AMDR00B000040560010B00004060061040  PB0000000040570000004       TB0000000040590000002BRUT   
EDEO A  000688321N:1A775ARJR00B000028160010B00002831002060NB000028160010PB000028310020
EDEO A  000688322X:1A775BCMR00B000070090010B00007066001000
EDEO A  000688323X:1A775AGUR00B000024950010B00002543001000
EDEO A  000688324N:1A775BG R00B000057020010B00005711035010
EDEO A  000688325B:1A775ABCR00B000046480010B00004669001000
EDEO A  000688326N:1A775AN R00B000021170040B00002120040060PB000021170050NB000021200400
EDEO A  000688327B:1A775AFLR00B000046560010B00004681001000
EDEO A  000688328P:1A775AXPR00B000054390040B00005443007000
EDEO A  000688329X:1A775BAMR00B000054530010B00005505001000
EDEO A  000688330X:1A775AHCR00B000135590010B00013845001000
EDEO A  000688331P:1A775AROR00B000029040010B00002907003000
EDEO A  000688332C:1A775APCR00B000097330010B00009763005000
EDEO A  000688333X:1A776AMBR00B000053660010B00005419001000
EDEO A  000688334P:1A776AVZR00B000019030150B00001915010000
EDEO A  000688335P:1A776ANNR00B000036610030B00003680008000
EDEO A  000688336P:1A776BAMR00B000053010020B00005485001000
EDEO A  000688337X:1A776ABCR00B000045970010B00004784001000
EDEO A  000688338X:1A776AEER00B000051000010B00005125001000
EDEO A  000688339N:1A776AT R00B000063040020B00006308003060NB000063040020PB000063080030
EDEO A  000688340X:1A776ALLR00B000054360010B00005490001000
EDEO A  000688341P:1A776AW R00B000010660100B00001069018000
EDEO A  000688342N:1A776BCRR00B000066580010B00006659001010
EDEO A  000688343X:1A776ACLR00B000114530010B00011504001000
EDEO A  000688344X:1A776AFLR00B000046410010B00004696001000
EDEO A  000688345B:1A776ALLR00B000054510010B00005475001000
EDEO A  000688346X:1A776AXER00B000046230010B00004724001000
EDEO A  000688347P:1A776ACER00B000055630050B00005569004010
EDEO A  000688348X:1A776AVZR00B000018050010B00001922001000
EDEO A  000688349P:1A776AL R00B000042900100B00004303005000
EDEO A  000688350P:1A776AEER00B000050320050B00005194003000
EDEO A  000688351N:1A776AVXR00B000016580010B00001659003010
EDEO A  000688352P:1A776ALLR00B000054610030B00005481004060PB000054610030NB000054650020
EDEO A  000688353P:1A776AW R00B000010660100B00001069017000
EDEO A  000688354P:1A776AESR00B000017480100B00001751004060NB000017490520NB000017500020
EDEO A  000688355P:1A776AL R00B000042940020B00004303005000
EDEO A  000688356P:1A776AETR00B000051600030B00005166001000
EDEO A  000688357N:1A776AVXR00B000016580010B00001659004010
EDEO A  000688358P:1A776AFLR00B000046660030B00004673004000
EDEO A  000688359P:1A776ALLR00B000054610030B00005465002000
EDEO A  000688360N:1A776AXLR00B000016860120B00001690002010
EBEO A  000688361T:1A776AHC             0    AAAR  B0000000136860000005B0000000137040000005INET     41  PB0000000136860000008       TB0000000137040000005INET   
EDEO A  000688362P:1A777CVXR00B000056550010B00005660011000
EDEO A  000688363P:1A777BZHR00B000063540010B00006361003000
EDEO A  000688364P:1A777CVXR00B000056550110B00005660011000
EDEO A  000688365N:1A777CALR00B000023350070B00002339001010
EBEO A  000688366T:1A777CVX             0    AAAR  B0000000056550000001B0000000056600000001BRUT     00
EDEO A  000688367P:1A777CTXR00B000067850030B00006794003000
EDEO A  000688368N:1A777CVXR00B000056550040B00005658001040  TD0000005657000000001BTRD   NB0000000056580000001       
EDEO A  000688369P:1B003AEER00B000050320050B00005194006000
EBEO A  000688370T:1B003AHC             0    AAAR  B0000000136860000005B0000000137040000005CAES     00
EDEO A  000688371N:1B003AGRR00B000013640230B00001365019010
EDEO A  000688372P:1B003AHCR00B000136870050B00013705005040  PB0000000136870000005       TB0000000137040000005INET   
EDEO A  000688373N:1B003ACVR00B000045740020B00004577021010
EDEO A  000688374N:1B003ADMR00B000031780170B00003179031010
EDEO A  000688375N:1B223BLIR00B000012760060B00001279033040  TB0000000012760000020TRIM   NB0000000012790000033       
EDEO A  000688376P:1B223CVHR00B000059190070B00005981002000
EDEO A  000688377N:1B223CCKR00B000018160090B00001822004010
EDEO A  000688378N:1B223BZFR00B000060250010B00006027006010
EDEO A  000688379N:1B223CVHR00B000059800010B00005981045010
EDEO A  000688380N:1B223CAIR00B000060910010B00006106002060NB000060910010PB000061020010
EDEO A  000688381N:1B223CHKR00B000029370090B00002938001040  NB0000000029370000009       TB0000000029380000003BRUT   
EDEO A  000688382N:1B223CEGR00B000059000020B00005905007010
EDEO A  000688383N:1B223CVSR00B000028680440B00002869005010
EDEO A  000688384N:1B223CRAR00B000012000130B00001201001060MB000012000430NB000012010010
EDEO A  000688385N:1B223CMCR00B000045470070B00004556002000
EDEO A  000688386N:1B223BNIR00B000079860010B00007989008060PB000079860020NB000079890080
EDEO A  000688387N:1B223BRLR00B000066910010B00006701005060NB000066910010PB000066980010
EDEO A  000688388N:1B224CB R00B000094860010B00009499004060PB000094860030NB000094990040
EDEO A  000688389P:1B224CHER00B000055700030B00005649003060PB000055700030NB000055950020
EDEO A  000688390N:1B224CCKR00B000018160030B00001822004060PB000018160030NB000018220040
EDEO A  000688391X:1B224BLSR00B000031320010B00003185001000
EDEO A  000688392N:1B224CVXR00B000056580050B00005659004010
EDEO A  000688393N:1B224COPR00B000061200040B00006123004000
EDEO A  000688394X:1B224COGR00B000045180010B00004569001000
EDEO A  000688395N:1B224BVFR00B000025400130B00002542001010
EDEO A  000688396X:1B224CAGR00B000020800010B00002133001000
EDEO A  000688397X:1B224BLKR00B000143000010B00014355001000
EDEO A  000688398N:1B224CTXR00B000067880010B00006791003010
EDEO A  000688399P:1B224CHER00B000055700020B00005649003060PB000055700020NB000055950020
EDEO A  000688400X:1B224CCKR00B000017910010B00001847001000
EDEO A  000688401X:1B224BLKR00B000143000010B00014354001000
EDEO A  000688402X:1B224BR R00B000089180010B00009121001000
EDEO A  000688403N:1B224COPR00B000061200040B00006124005000
EDEO A  000688404N:1B224CEGR00B000059000020B00005903004010
EDEO A  000688405X:1B224CMIR00B000108100010B00010876001000
EDEO A  000688406X:1B224BNKR00B000030560010B00003168001000
EDEO A  000688407N:1B224CVSR00B000028680440B00002869003010
EDEO A  000688408N:1B224CLFR00B000085500010B00008554005010
EDEO A  000688409B:1B224BR R00B000090070010B00009031001000
EDEO A  000688410N:1B224CRRR00B000054950100B00005505005010
EDEO A  000688411N:1B224CNQR00B000054260120B00005427003010
EDEO A  000688412N:1B224CCLR00B000052450390B00005247070040  NB0000000052450000039       TB0000000052460000005BRUT   
EDEO A  000688413N:1B224CYHR00B000038300970B00003833055010
EDEO A  000688414N:1B224CMAR00B000057540060B00005755002010
EDEO A  000688415X:1B224CRKR00B000027800010B00002856001000
EDEO A  000688416N:1B224BNSR00B000042520550B00004259003000
EDEO A  000688417P:1B224CMIR00B000108360020B00010867001060PB000108360020NB000108510040
EDEO A  000688418B:1B225BR R00B000090070010B00009031001000
EDEO A  000688419X:1B225CVXR00B000056320010B00005684001000
EDEO A  000688420P:1B225CHER00B000055710010B00005649003060PB000055710010NB000055950020
EDEO A  000688421X:1B225CRKR00B000027800010B00002855001000
EDEO A  000688422N:1B225BMYR00B000023070020B00002308004060PB000023070050NB000023080040
EDEO A  000688423P:1B225CNIR00B000094150010B00009432003060NB000094150040PB000094320030
EDEO A  000688424P:1B225BR R00B000090170070B00009021010040  PB0000000090170000007       TB0000000090200000007INET   
EBEO A  000688425T:1B225CYD             0    AAAR  B0000000007500000039B0000000007750000004TRIM     43  TB0000000007500000039TRIM   PB0000000007510000002         B0000000007500000039TRIM   B0000000007750000015BRUT   
EDEO A  000688426N:1B225CLER00B000032140070B00003218010010
EDEO A  000688427X:1B225CEGR00B000058750010B00005928001000
EBEO A  000688428T:1B225CRR             0    AAAR  B0000000052700000001B0000000055810000001SBSH     03  B0000000054300000001TRIM   B0000000055810000001SBSH   
EDEO A  000688429X:1B225CNFR00B000050270010B00005102001000
EBEO A  000688430T:1B225CYD             0    AAAR  B0000000007500000039B0000000007750000019CAES     00
EDEO A  000688431N:1B225CHKR00B000029370070B00002938001040  NB0000000029370000007       TB0000000029380000003BRUT   
EBEO A  000688432T:1B225CRR             0    AAAR  B0000000054300000001B0000000055810000001CAES     00
EDEO A  000688433X:1B225CNIR00B000093900010B00009458001000
EDEO A  000688434P:1B225CVSR00B000028670040B00002871003000
EDEO A  000688435P:1B225CC R00B000024100040B00002414001060PB000024100040NB000024120010
EDEO A  000688436N:1B225CHER00B000055690010B00005594003060PB000055710010NB000055940030
EDEO A  000688437N:1B225CSGR00B000040790510B00004080001010
EDEO A  000688438P:1B225CVXR00B000056560100B00005660011000
EDEO A  000688439N:1B235CL R00B000055230010B00005526001010
EDEO A  000688440P:1B235COPR00B000061200030B00006123002000
EDEO A  000688441B:1B235CVSR00B000028580010B00002879001000
EDEO A  000688442N:1B235CLFR00B000085220030B00008550001010
EDEO A  000688443X:1B235CSLR00B000077740010B00007829001000
EDEO A  000688444P:1B235CVXR00B000056550110B00005660011000
EDEO A  000688445X:1B235CSGR00B000040540010B00004106001000
EDEO A  000688446N:1B235CZNR00B000013280050B00001329002010
EBEO A  000688447T:1B235CHK             0    AAAR  B0000000029350000010B0000000029400000001MADF     00
EDEO A  000688448X:1B235CPSR00B000044270010B00004493001000
EDEO A  000688449P:1B235CVXR00B000056550190B00005660011000
EBEO A  000688450T:1B235CHK             0    AAAR  B0000000029350000012B0000000029380000003CAES     00
EDEO A  000688451X:1B235CR R00B000038870010B00003984001000
EDEO A  000688452X:1B235CVXR00B000056300010B00005683001000
EDEO A  000688453X:1B235CR R00B000038870010B00003983001000
EDEO A  000688454P:1B235AL R00B000042950050B00004306035060NB000043000010PB000043060350
EDEO A  000688455N:1B235BA R00B000073500030B00007351006040  TB0000000073500000010TRIM   NB0000000073510000006       
EDEO A  000688456N:1B235BHPR00B000036200340B00003623088010
EBEO A  000688457P:1B235BBI/B           0    AAAR  B0000000003550000001B0000000003610000001         00
EDEO A  000688458P:1B235AL R00B000042950050B00004304005060NB000043000010PB000043040050
EDEO A  000688459N:1B235AGNR00B000110300010B00011032002010
EBEO A  000688460T:1B235ACI             0    AAAR  B0000000072570000001B0000000073600000001SBSH     03  B0000000073230000010BRUT   B0000000073600000001SBSH   
EDEO A  000688461P:1B235AXPR00B000054390050B00005443007000
EDEO A  000688462N:1B235APAR00B000066680010B00006670003010
EDEO A  000688463P:1B235BDCR00B000026050220B00002607001060PB000026050220NB000026050010
EDEO A  000688464N:1B235BDXR00B000064650110B00006471008000
EBEO A  000688465T:1B236ACI             0    AAAR  B0000000073230000010B0000000073600000001CAES     00
EDEO A  000688466M:1B236AGRR00B000013500220B00001368020000
EDEO A  000688467N:1B236APAR00B000066670070B00006669001040  TB0000000066670000010INET   NB0000000066690000001       
EDEO A  000688468P:1B236AL R00B000042950050B00004304030060NB000043000010PB000043040300
EDEO A  000688469N:1B236BF R00B000076020110B00007604041010
EBEO A  000688470T:1B236BA              0    AAAR  B0000000072490000020B0000000074290000020BRUT     00
EDEO A  000688471N:1B236BAPR00B000029510010B00002965002010
EBEO A  000688472T:1B236AV              0    AAAR  B0000000010520000001B0000000011540000001SBSH     00
EDEO A  000688473N:1B236AGLR00B000019990030B00002001001060PB000020000190NB000020010010
EDEO A  000688474N:1B236ALLR00B000054610010B00005465003060PB000054610030NB000054650030
EDEO A  000688475P:1B236ABTR00B000044190070B00004424001000
EBEO A  000688476T:1B236APA             0    AAAR  B0000000066670000011B0000000066720000010INET     41  TB0000000066670000011INET   NB0000000066690000001       
EDEO A  000688477P:1B236B  R00B000038090010B00007656001060PB000038090010NB000038250010
EDEO A  000688478P:1B236ADIR00B000038550050B00003859005000
EDEO A  000688479N:1B236BCER00B000024050030B00002408004060NB000024050030PB000024080130
EBEO A  000688480N:1B236AKH/WS          0    AAAR  B0000000002110000150B0000000002200000005         10
EDEO A  000688481P:1B236AESR00B000017480100B00001751001000
EDEO A  000688482P:1B236APHR00B000000010030B00005065001000
EDEO A  000688483P:1B236BACR00B000046000470B00004601024060PB000046000470NB000046011300
EDEO A  000688484N:1B236BBDR00B000041050500B00004106018010
EDEO A  000688485P:1B236AIGR00B000066950030B00006697001000
EDEO A  000688486N:1B236AA R00B000029540030B00002955004010
EDEO A  000688487N:1B236ADMR00B000031780160B00003179031010
EBEO A  000688488T:1B236APA             0    AAAR  B0000000066670000011B0000000066720000010CAES     00
EDEO A  000688489N:1B236AL R00B000043000010B00004301006010
EDEO A  000688490N:1B236ASNR00B000047780100B00004779006010
EDEO A  000688491N:1B236AESR00B000017490460B00001750002010
EDEO A  000688492N:1B236AINR00B000037010070B00003707004010
EDEO A  000688493P:1B236B  R00B000038090010B00003891001000
EDEO A  000688494N:1B236ABNR00B000029030050B00002906002010
EDEO A  000688495P:1B236AN R00B000021170010B00002122001060NB000021170040NB000021200400
EBEO A  000688496P:1B236AEM        A    0    AAAR  B0000000025940000003B0000000025960000003         00
EDEO A  000688497P:1B236BDCR00B000026050090B00002607001060PB000026050090NB000026050010
EDEO A  000688498P:1B236APHR00B000049810030B00005065001000
EDEO A  000688499P:1B236AL R00B000042950070B00004304030000
EDEO A  000688500N:1B236ADMR00B000031780160B00003179039010
EDEO A  000688501N:1B236AXSR00B000031010110B00003108008000
EDEO A  000688502X:1B245AEER00B000051010010B00005125001000
EDEO A  000688503N:1B245ACER00B000055630010B00005570009000
EDEO A  000688504N:1B245BBTR00B000039960010B00003997001060PB000039960030NB000039970010
EDEO A  000688505P:1B245AN R00B000021170010B00002121004000
EDEO A  000688506N:1B245ARGR00B000036360010B00003647003000
EDEO A  000688507P:1B245BA R00B000073480020B00007354004000
EBEO A  000688508T:1B245ABY             0    AAAR  B0000000003500000001B0000000003540000005TRIM     03  D0000000350000000010AUTO   B0000000003540000005TRIM   
EBEO A  000688509X:1B245AEM        A    0    AAAR  B0000000025690000001B0000000026210000001         00
EDEO A  000688510N:1B245BAYR00B000040600320B00004063001010
EBEO A  000688511T:1B245ABY             0    AAAR  B0000000003500000011B0000000003540000005CAES     00
EBEO A  000688512N:1B245AEM        A    0    AAAR  B0000000025940000008B0000000025960000013         40  TB0000000025950000003BRUT   NB0000000025960000013       
EDEO A  000688513B:1B246BA R00B000073400010B00007362001000
EDEO A  000688514N:1B246APAR00B000066660030B00006669001000
EDEO A  000688515P:1B246APHR00B000049810050B00005065001000
EDEO A  000688516N:1B246AGER00B000045320020B00004538003010
EDEO A  000688517C:1B246BA R00B000073350010B00007367001000
EDEO A  000688518N:1B246A  R00B000036400160B00003642010010
EDEO A  000688519N:1B246BAXR00B000037930080B00003795008010
EDEO A  000688520N:1B246ACER00B000055630010B00005570008000
EDEO A  000688521X:1B246AMDR00B000040310010B00004085001000
EDEO A  000688522N:1B246AVXR00B000016580010B00001659003010
EDEO A  000688523N:1B246BCOR00B000049580010B00004960005010
EDEO A  000688524X:1B246ARCR00B000009250010B00000976001000
EDEO A  000688525N:1B246ABCR00B000046580040B00004659012010
EDEO A  000688526C:1B246AMDR00B000040560060B00004060002000
EDEO A  000688527P:1B246BBWR00B000027800030B00002875001000
EDEO A  000688528P:1B246AXLR00B000016850010B00001701008000
EDEO A  000688529N:1B246ABCR00B000046580040B00004659007010
EDEO A  000688530N:1B246ASOR00B000027960070B00002797001010
EDEO A  000688531P:1B246BDCR00B000025240020B00002607001060NB000026040060NB000026050010
EDEO A  000688532X:1B246BA R00B000073250010B00007377001000
EDEO A  000688533C:1B246AMDR00B000040560060B00004060012000
EDEO A  000688534P:1B246BDCR00B000025250030B00002607001000
EDEO A  000688535P:1B246ARGR00B000036360010B00003647001060NB000036360010NB000036470030
EDEO A  000688536X:1B246AXLR00B000016650010B00001717001000
EDEO A  000688537N:1B246AZ R00B000016310030B00001633341010
EDEO A  000688538X:1B246AN R00B000020170010B00002220001000
EDEO A  000688539N:1B246AVLR00B000038110030B00003821006010
EDEO A  000688540P:1B246AXLR00B000016030020B00001701008000
EDEO A  000688541X:1B246AXLR00B000016660010B00001717001000
EDEO A  000688542P:1B246AXLR00B000016040030B00001701008000
EDEO A  000688543X:1B246CTXR00B000066870010B00006893001000
EDEO A  000688544X:1B246CVSR00B000028580010B00002879001000
EDEO A  000688545N:1B702CR R00B000039020050B00003908004010
EDEO A  000688546N:1B702CLER00B000032140010B00003218010010
EBEO A  000688547T:1B702BR              0    AAAR  B0000000090160000010B0000000090200000007INET     00
EBEO A  000688548T:1B702CVX             0    AAAR  D0000005657000000001D0000400000000000001BTRD     00
EDEO A  000688549P:1B702CPSR00B000043910050B00004469001000
EDEO A  000688550N:1B702BLWR00B000018400050B00001843002010
EDEO A  000688551P:1B702BZHR00B000063550010B00006361003000
EDEO A  000688552N:1B702CMAR00B000057540060B00005755001010
EDEO A  000688553N:1B702BTHR00B000022530020B00002256008010
EBEO A  000688554T:1B702CVX             0    AAAR  D0000005656000000001D0000400000000000001BTRD     03  D0000005656000000001BTRD   B0000000056600000001TRIM   
EDEO A  000688555P:1B702CPSR00B000043910050B00004552005000
EDEO A  000688556N:1B702CCJR00B000036660080B00003667015010
EDEO A  000688557N:1B702COGR00B000045410010B00004543001010
EBEO A  000688558N:1B702BOL             4    AAAR  B0000000069990000007B0000000070000000002         10
EDEO A  000688559P:1B702CBER00B000083080020B00008467005060NB000083810030NB000083870030
EDEO A  000688560C:1B702CHKR00B000029370060B00002939007000
EBEO A  000688561T:1B702CVX             0    AAAR  B0000000056560000001B0000000056600000002CAES     00
EDEO A  000688562P:1B702CSCR00B000054490010B00005460003000
EDEO A  000688563X:1B702CEGR00B000058750010B00005930001000
EDEO A  000688564N:1B702CBMR00B000018680010B00001873032010
EDEO A  000688565N:1B702CIRR00B000027800020B00002790004000
EDEO A  000688566C:1B702CMIR00B000107950010B00010898001000
EBEO A  000688567T:1B702CVX             0    AAAR  B0000000056490000001B0000000056780000011TMBR     00
EDEO A  000688568P:1B702CPSR00B000043910050B00004551003000
EDEO A  000688569N:1B702BR R00B000090160070B00009021009000
EDEO A  000688570C:1B702CMIR00B000107950010B00010891001000
EDEO A  000688571P:1B702BP R00B000066260100B00006629010000
EDEO A  000688572P:1B702CEGR00B000059000010B00011820005000
EDEO A  000688573P:1B702CBER00B000083090030B00008467005000
EDEO A  000688574P:1B702CHSR00B000046990030B00004704003000
EDEO A  000688575P:1B702CX R00B000061970030B00006207001060PB000061970030NB000061980040
EDEO A  000688576P:1B702CSCR00B000054500010B00005460003000
EBEO A  000688577T:1B702BR              0    AAAR  B0000000090160000010B0000000090200000003INET     41  PB0000000090170000007       TB0000000090200000003INET   
EDEO A  000688578N:1B702CMZR00B000012410020B00001244002010
EDEO A  000688579P:1B702BP R00B000066260150B00006629010060PB000066260150NB000066290290
EDEO A  000688580X:1B702CEGR00B000058750010B00005928001000
EDEO A  000688581N:1B702CBBR00B000004140070B00000416013010
EDEO A  000688582P:1B702CHKR00B000029360060B00002939008000
EBEO A  000688583T:1B702CVX             0    AAAR  D0000000001000000001D0000400000000000001BTRD     03  B0000000056550000001BRUT   B0000000056600000001TRIM   
EBEO A  000688584T:1B703BR              0    AAAR  B0000000090160000010B0000000090200000003CAES     00
EDEO A  000688585P:1B703CPSR00B000043910050B00004551008000
EDEO A  000688586P:1B703CEGR00B000059000010B00005984005000
EBEO A  000688587T:1B703CME             0    AAAR  B0000000435000000001B0000000437000000001BRUT     03  B0000000435000000001TRIM   B0000000437000000001BRUT   
EDEO A  000688588N:1B703CALR00B000023350110B00002339001010
EBEO A  000688589T:1B703CVX             0    AAAR  B0000000056550000001B0000000056600000002CAES     00
EDEO A  000688590N:1B703CIRR00B000027810010B00002790004000
EBEO A  000688591T:1B703BR              0    AAAR  B0000000090160000010B0000000181150000001INET     63PB000090170070PB000090210100  B0000000090160000010INET   B0000000090570000001TMBR   
EDEO A  000688592P:1B703CEGR00B000059000010B00005909001000
EDEO A  000688593N:1B703CSXR00B000055530200B00005555028010
EDEO A  000688594P:1B703CBER00B000083090050B00008467005000
EBEO A  000688595T:1B703CME             0    AAAR  B0000000435000000002B0000000437000000001CAES     00
EBEO A  000688596T:1B703CHK             0    AAAR  B0000000029350000002B0000000029380000002BRUT     43  NB0000000029370000007       TB0000000029380000002BRUT     B0000000029350000010MADF   B0000000029380000002BRUT   
EDEO A  000688597P:1B703CVXR00B000056550150B00005660011000
EBEO A  000688598T:1B703BR              0    AAAR  B0000000090160000010B0000000090570000001CAES     00
EDEO A  000688599N:1B703CR R00B000039020050B00003908003010
EDEO A  000688600P:1B703CB R00B000094860030B00009499002000
EDEO A  000688601N:1B703CNLR00B000022380020B00002240001010
EBEO A  000688602T:1B703CHK             0    AAAR  B0000000029350000012B0000000029380000002CAES     00
EBEO A  000688603T:1B703CVX             0    AAAR  D0000005657000000001D0000400000000000001BTRD     03  D0000005657000000001BTRD   B0000000056600000001TRIM   
EDEO A  000688604P:1B703BVFR00B000025350200B00002545004000
EDEO A  000688605N:1B715CPSR00B000044680010B00004469005010
EDEO A  000688606N:1B715CALR00B000023370010B00002339002010
EDEO A  000688607N:1B715CMCR00B000045470070B00004556001060MB000045500080NB000045560010
EDEO A  000688608P:1B715CHKR00B000029360070B00002939008000
EBEO A  000688609T:1B715CVX             0    AAAR  B0000000056570000001B0000000056600000002CAES     00
EDEO A  000688610X:1B715BRLR00B000065910010B00006801001000
EDEO A  000688611X:1B715CRAR00B000011750010B00001226001000
EDEO A  000688612N:1B715C  R00B000046730090B00004674001040  NB0000000046730000009       TB0000000046740000003BRUT   
EDEO A  000688613P:1B715CNXR00B000064270020B00006428001040  TD0000006428000000001BTRD   PB0000000064280000001       
EDEO A  000688614P:1B715CLFR00B000000010010B00008631007000
EDEO A  000688615P:1B715CTXR00B000067860030B00006794003000
EDEO A  000688616X:1B715BVFR00B000025150010B00002567001000
EDEO A  000688617X:1B715COPR00B000056020010B00006603001000
EDEO A  000688618P:1B716CB R00B000094860030B00009499001000
EDEO A  000688619X:1B716CHER00B000055440010B00005619001000
EDEO A  000688620P:1B716CNXR00B000064270020B00006436003040  TD0000006428000000001BTRD   NB0000000064340000001       
EDEO A  000688621B:1B716BVFR00B000025300010B00002552001000
EBEO A  000688622T:1B716CVX             0    AAAR  D0000005657000000001D0000400000000000001BTRD     00
EDEO A  000688623X:1B716COPR00B000056020010B00006604001000
EDEO A  000688624X:1B716CLFR00B000077630010B00008751001000
EDEO A  000688625P:1B716CMER00B000436580020B00043701003000
EDEO A  000688626X:1B716CB R00B000094740010B00009516001000
EBEO A  000688627T:1B716BR              0    AAAR  B0000000090160000010B0000000090240000006INET     01
EBEO A  000688628T:1B716CVX             0    AAAR  D0000005655000000001D0000400000000000001BTRD     03  B0000000056550000001BRUT   B0000000056600000001TRIM   
EDEO A  000688629X:1B716CSGR00B000040540010B00004105001000
EDEO A  000688630P:1B716CLFR00B000084660050B00008631007000
EDEO A  000688631N:1B716CNIR00B000094150040B00009433006000
EDEO A  000688632N:1B716C  R00B000046730090B00004675057000
EBEO A  000688633T:1B716BR              0    AAAR  B0000000090160000010B0000000090240000006CAES     00
EBEO A  000688634T:1B716CVX             0    AAAR  B0000000056550000002B0000000056600000002CAES     00
EDEO A  000688635B:1B716CRAR00B000011900010B00001211001000
EDEO A  000688636P:1B716CLFR00B000084660070B00008631007000
EDEO A  000688637C:1B716CMER00B000436710010B00044037001000
EBEO A  000688638T:1B716BVF             0    AAAR  B0000000025400000004B0000000025440000001INET     01
EDEO A  000688639P:1B716CTXR00B000067860030B00006796003000
EDEO A  000688640N:1B716CSXR00B000055530150B00005555028010
EDEO A  000688641N:1B716CLDR00B000025210010B00002532001010
EBEO A  000688642T:1B716BVF             0    AAAR  B0000000025400000004B0000000025440000001CAES     00
EDEO A  000688643N:1B717CVSR00B000028680510B00002869005010
EDEO A  000688644N:1B717CSXR00B000055530150B00005554001010
EDEO A  000688645N:1B717BTHR00B000022530020B00002256010010
EDEO A  000688646P:1B717CTXR00B000067860030B00006795003000
EBEO A  000688647T:1B717CVX             0    AAAR  B0000000056560000001B0000000056600000001BRUT     03  B0000000056560000001BRUT   B0000000056600000001TRIM   
EBEO A  000688648T:1B717CVX             0    AAAR  B0000000056560000001B0000000056600000002CAES     00
EDEO A  000688649P:1B717CVSR00B000028670040B00002871002000
EDEO A  000688650P:1B717CVXR00B000056550180B00005660011000
EDEO A  000688651N:1B717CTXR00B000067880020B00006791003010
EDEO A  000688652N:1B717CTXR00B000067890010B00006791003010
EDEO A  000688653N:1B717CX R00B000061930050B00006198004000
EDEO A  000688654X:1B717CVXR00B000056330010B00005684001000
EBEO A  000688655T:1B717CVX             0    AAAR  D0000005657000000001D0000400000000000001BTRD     03  D0000005657000000001BTRD   B0000000056600000001TRIM   
EBEO A  000688656T:1B717CVX             0    AAAR  B0000000056570000001B0000000056600000002CAES     00
EBEO A  000688657T:1B717CVX             0    AAAR  D0000005657000000001D0000400000000000001BTRD     00
EDEO A  000688658P:1B717CVXR00B000056560110B00005660010000
EDEO A  000688659B:1B717CVXR00B000056300100B00005709001000
EBEO A  000688660T:1B717CVX             0    AAAR  D0000005658000000001D0000400000000000001BTRD     03  D0000005658000000001BTRD   B0000000056600000001TRIM   
EBEO A  000688661T:1B717CVX             0    AAAR  B0000000056580000001B0000000056600000002CAES     00
EDEO A  000688662N:1B717CUKR00B000055600330B00005571020010
EBEO A  000688663T:1B717CVX             0    AAAR  D0000005658000000001D0000400000000000001BTRD     00
EDEO A  000688664N:1B717CVHR00B000059800010B00005981041010
EDEO A  000688665P:1B717AHCR00B000136870050B00013704005000
EDEO A  000688666P:1B717AXLR00B000016040050B00001701008000
EDEO A  000688667N:1B717BF R00B000076020110B00007605007010
EDEO A  000688668N:1B717ANFR00B000067940010B00006797006010
EDEO A  000688669P:1B717ARGR00B000036360010B00003646002060NB000036360010PB000036460020
EDEO A  000688670P:1B717BDCR00B000025250050B00002607001000
EDEO A  000688671N:1B717BGGR00B000035940080B00003602009040  TB0000000035950000003TRIM   NB0000000036020000009       
EDEO A  000688672N:1B717ADMR00B000031780160B00003179038010
EDEO A  000688673N:1B717ABXR00B000027330210B00002734032010
EDEO A  000688674N:1B717AZRR00B000030400480B00003045002010
EDEO A  000688675N:1B717AITR00B000043290010B00004343004010
EDEO A  000688676N:1B717AMRR00B000025150050B00002519002060NB000025150050PB000025180070
EDEO A  000688677N:1B717BK R00B000034350010B00003438008000
EDEO A  000688678N:1B717ARCR00B000009500030B00000951004010
EDEO A  000688679N:1B725BA R00B000073500030B00007351008040  TB0000000073500000010TRIM   NB0000000073510000008       
EDEO A  000688680N:1B725ACSR00B000063390200B00006340002010
EBEO A  000688681T:1B725BJS             0    AAAR  B0000000031500000006B0000000032390000006TRIM     00
EDEO A  000688682P:1B725ABNR00B000029030030B00002908075000
EDEO A  000688683P:1B725ASAR00B000000010030B00006197002040  TB0000000061600000003TRIM   NB0000000061970000007       
EBEO A  000688684T:1B725AHC             0    AAAR  B0000000136860000004B0000000137040000004INET     61PB000136870050PB000137040050
EDEO A  000688685P:1B725AMRR00B000025110030B00002519002060NB000025150050NB000025190020
EDEO A  000688686N:1B725BCER00B000024050030B00002408009000
EDEO A  000688687P:1B725AGNR00B000110250010B00011033005000
EDEO A  000688688P:1B725ABNR00B000029030040B00002908075000
EDEO A  000688689C:1B725ADIR00B000038550080B00003859003060CB000038550080NB000038580020
EDEO A  000688690N:1B726BA R00B000073500030B00007351009040  TB0000000073500000010TRIM   NB0000000073510000009       
EDEO A  000688691N:1B726BJSR00B000031650360B00003166051010
EDEO A  000688692P:1B726ASAR00B000000010030B00006197004000
EDEO A  000688693P:1B726AA R00B000029520070B00002956005000
EBEO A  000688694T:1B726AHC             0    AAAR  B0000000136860000004B0000000137040000004CAES     00
EDEO A  000688695P:1B726AMDR00B000040570040B00004060006000
EDEO A  000688696N:1B726ARER00B000088400020B00008859002010
EDEO A  000688697P:1B726BA R00B000073480020B00007353004000
EDEO A  000688698P:1B726A  R00B000036400070B00003643001000
EDEO A  000688699P:1B726AGNR00B000110210010B00011033005000
EDEO A  000688700N:1B726BHIR00B000067230100B00006730001060NB000067230100PB000067260060
EDEO A  000688701P:1B726AMRR00B000025110040B00002519002000
EDEO A  000688702N:1B726AXPR00B000054410040B00005443019010
EDEO A  000688703X:1B726AL R00B000042190010B00004418001000
EDEO A  000688704X:1B726ARGR00B000036130010B00003720001000
EDEO A  000688705N:1B726ACER00B000055630010B00005570001000
EDEO A  000688706N:1B726BHIR00B000067240100B00006725001010
EDEO A  000688707X:1B726AGNR00B000095440010B00011112001000
EDEO A  000688708P:1B726BAXR00B000037380020B00003814008000
EBEO A  000688709T:1B726APA             0    AAAR  B0000000066670000010B0000000066720000010INET     41  TB0000000066670000010INET   NB0000000066690000001       
EDEO A  000688710N:1B726BHIR00B000067240110B00006725001010
EDEO A  000688711X:1B726BA R00B000073250010B00007376001000
EDEO A  000688712P:1B726BAXR00B000037900040B00003814008000
EDEO A  000688713N:1B726BACR00B000045990170B00004601130000
EDEO A  000688714X:1B726AINR00B000036650010B00003730001000
EDEO A  000688715N:1B726ADMR00B000031780120B00003179038010
EBEO A  000688716T:1B726APA             0    AAAR  B0000000066670000010B0000000066720000010CAES     00
EDEO A  000688717N:1B726A  R00B000036400200B00003642010010
EBEO A  000688718N:1B727BBI/B           0    AAAR  B0000000003530000001B0000000003610000013         40  PB0000000003550000001       TB0000000003610000020TRIM   
EDEO A  000688719N:1B727AGUR00B000025180020B00002520004010
EDEO A  000688720B:1B727BA R00B000073400010B00007361001000
EDEO A  000688721B:1B727BAXR00B000037430010B00003845001000
EDEO A  000688722N:1B727ADIR00B000038540290B00003858001060CB000038550080NB000038580010
EDEO A  000688723C:1B727BA R00B000073350010B00007366001000
EDEO A  000688724X:1B727APAR00B000066420010B00006694001000
EDEO A  000688725X:1B727A  R00B000036150010B00003667001000
EDEO A  000688726P:1B727AL R00B000042950050B00004300008060NB000043000010PB000043000080
EBEO A  000688727T:1B727AMP             0    AAAR  B0000000045010000001B0000000047270000001TRIM     01
EDEO A  000688728P:1B727AXSR00B000030360050B00003107001000
EBEO A  000688729T:1B727AMP             0    AAAR  B0000000045010000001B0000000047270000001CAES     00
EDEO A  000688730B:1B735AGNR00B000110200010B00011042001000
EDEO A  000688731X:1B735BAXR00B000037680010B00003820001000
EDEO A  000688732N:1B735AB R00B000065000160B00006507001010
EDEO A  000688733P:1B735ADIR00B000038550050B00003859004000
EDEO A  000688734N:1B735AHCR00B000136850010B00013705003000
EDEO A  000688735N:1B735BA R00B000073500030B00007351007040  TB0000000073500000010TRIM   NB0000000073510000007       
EDEO A  000688736X:1B735BCOR00B000049330010B00004985001000
EDEO A  000688737B:1B735APAR00B000066570010B00006679001000
EDEO A  000688738N:1B735AGLR00B000020010010B00002009002010
EDEO A  000688739N:1B735ALVR00B000053960020B00005400022010
EDEO A  000688740N:1B735AXSR00B000031010110B00003108006000
EDEO A  000688741B:1B735APAR00B000066570010B00006679001000
EDEO A  000688742P:1B735AXSR00B000030360070B00003107001000
EDEO A  000688743N:1B735AETR00B000051620080B00005163017010
EDEO A  000688744C:1B735AMDR00B000040560060B00004060016000
EDEO A  000688745N:1B955CZNR00B000013280060B00001329002010
EDEO A  000688746N:1B955CTSR00B000012330170B00001239002000
EDEO A  000688747N:1B956AZ R00B000016310030B00001633426010
EDEO A  000688748N:1B956BAMR00B000054780030B00005480002010
EDEO A  000688749N:1B956AESR00B000017490460B00001750005010
EDEO A  000688750N:1B956AXPR00B000054420380B00005443019010
EDEO A  000688751N:1B956APDR00B000064220100B00006428001000
EDEO A  000688752X:1B956AGER00B000045170010B00004560001000
EDEO A  000688753N:1B956AVXR00B000016580020B00001659003010
EDEO A  000688754N:1B956APAR00B000066660010B00006669001000
EDEO A  000688755C:1B956ADIR00B000038550080B00003859002000
EDEO A  000688756X:1B956AZ R00B000015890010B00001686001000
EDEO A  000688757B:1B956APAR00B000066560010B00006679001000
EDEO A  000688758X:1B956APAR00B000066410010B00006694001000
EDEO A  000688759P:1B956AXAR00B000035660250B00003569001060PB000035660250NB000035670100
EDEO A  000688760N:1B956AZNR00B000046160010B00004617001060NB000046160010PB000046170030
EBEO A  000688761T:1C157CVX             0    AAAR  B0000000056550000001B0000000056600000001BRUT     00
EDEO A  000688762N:1C157CAGR00B000021060150B00002108002010
EDEO A  000688763N:1C157CHRR00B000005550100B00000558033010
EDEO A  000688764P:1C157BSYR00B000036000100B00003626010000
EDEO A  000688765N:1C157CMSR00B000014030150B00001405010010
EDEO A  000688766P:1C157CPSR00B000043910050B00004470002000
EDEO A  000688767P:1C157CX R00B000061970030B00006207004000
EDEO A  000688768P:1C157BVFR00B000025360050B00002545004000
EDEO A  000688769N:1C157CYDR00B000007490510B00000756004000
EDEO A  000688770P:1C157BZHR00B000063550020B00006361003000
EDEO A  000688771P:1C157CNIR00B000094150010B00009432004060NB000094150040PB000094320040
EDEO A  000688772N:1C157CLXR00B000061560030B00006159002010
EDEO A  000688773P:1C157BVFR00B000025360200B00002545004000
EDEO A  000688774N:1C157CVXR00B000056580050B00005659005010
EDEO A  000688775P:1C157CSXR00B000055510100B00005557001000
EDEO A  000688776N:1C157CE R00B000021780010B00002179003010
EBEO A  000688777T:1C157CAM             0    AAAR  B0000000040000000002B0000000040140000001INET     41  TB0000000040000000002INET   NB0000000040040000001       
EDEO A  000688778N:1C157COLR00B000053750030B00005378004010
EDEO A  000688779N:1C157CHZR00B000029050180B00002907003010
EDEO A  000688780B:1C157BR R00B000090060010B00009031001000
EDEO A  000688781P:1C157CX R00B000061840150B00006207004060NB000061930050NB000061980040
EDEO A  000688782N:1C157BNKR00B000030780030B00003090002060NB000030780030PB000030890030
EDEO A  000688783N:1C157CSGR00B000040790500B00004080001010
EDEO A  000688784N:1C157CEGR00B000059000020B00005903002010
EBEO A  000688785T:1C157CAM             0    AAAR  B0000000040000000002B0000000040140000001CAES     00
EDEO A  000688786N:1C157BRYR00B000066580020B00006663001010
EDEO A  000688787P:1C157CNIR00B000094150010B00009432001060NB000094150040PB000094320010
EBEO A  000688788X:1C157BOL             4    AAAR  B0000000069870000001B0000000070120000001         00
EBEO A  000688789T:1C157CLF             0    AAAR  B0000000075660000001B0000000098990000001TMBR     00
EDEO A  000688790P:1C157CTVR00B000024000010B00002483005000
EDEO A  000688791B:1C157CSXR00B000055430010B00005565001000
EDEO A  000688792B:1C157CALR00B000023270010B00002349001000
EDEO A  000688793C:1C157CMER00B000436620030B00044037001000
EDEO A  000688794N:1C157CIBR00B000032640020B00003280005060PB000032640030NB000032800050
EDEO A  000688795P:1C157CX R00B000061840150B00006207001000
EDEO A  000688796B:1C157CSXR00B000055430010B00005564001000
EDEO A  000688797C:1C157C  R00B000046620010B00004686001000
EDEO A  000688798N:1C157BUHR00B000016840450B00001690020010
EDEO A  000688799P:1C157CNIR00B000094150010B00009431002060NB000094150040PB000094310020
EDEO A  000688800N:1C157CX R00B000061970030B00006198004010
EDEO A  000688801N:1C157CHGR00B000048980020B00004920004010
EDEO A  000688802N:1C158CCCR00B000008070050B00000814005010
EDEO A  000688803N:1C158CB R00B000094850020B00009499004000
EDEO A  000688804X:1C158BR R00B000089170010B00009121001000
EDEO A  000688805N:1C158CHZR00B000029060010B00002907003010
EDEO A  000688806B:1C158CSXR00B000055430010B00005564001000
EBEO A  000688807T:1C158CNX             0    AAAR  D0000006428000000001D0000400000000000001BTRD     00
EBEO A  000688808T:1C158CVX             0    AAAR  B0000000056550000001B0000000056610000001BRUT     00
EDEO A  000688809N:1C158CB R00B000094850020B00009488001060PB000094860030NB000094880010
EDEO A  000688810N:1C158BR R00B000090190010B00009021009060NB000090190010PB000090210100
EDEO A  000688811N:1C158CRER00B000041400010B00004142002010
EBEO A  000688812T:1C158CNX             0    AAAR  D0000006427000000001D0000400000000000001BTRD     63NB000064270050NB000064340010  D0000006427000000001BTRD   B0000000064800000002TRIM   
EDEO A  000688813N:1C158AN R00B000021150460B00002120040060PB000021170010NB000021200400
EDEO A  000688814N:1C158BF R00B000076020010B00007605007010
EDEO A  000688815N:1C158AXLR00B000016860030B00001690002010
EDEO A  000688816N:1C158ARCR00B000009500020B00000951004010
EDEO A  000688817N:1C158AMXR00B000034550150B00003458001060NB000034550150PB000034580020
EBEO A  000688818M:1C158AKH/WS          0    AAAR  B0000000002010000001B0000000002300000001         00
EDEO A  000688819N:1C158BBWR00B000028580050B00002875001060NB000028580050PB000028750010
EDEO A  000688820N:1C158AETR00B000051620070B00005163017010
EDEO A  000688821N:1C158AA R00B000029540030B00002955001010
EDEO A  000688822N:1C158AVYR00B000060180030B00006021002010
EDEO A  000688823C:1C158BAXR00B000037530010B00003836001000
EDEO A  000688824P:1C158BERR00B000057770010B00005794001000
EDEO A  000688825N:1C158ANFR00B000067900010B00006797006060PB000067900060NB000067970060
EDEO A  000688826N:1C158ALAR00B000013590010B00001360475000
EDEO A  000688827N:1C165ADPR00B000046070040B00004608033010
EDEO A  000688828P:1C165AXPR00B000054390080B00005443007000
EDEO A  000688829C:1C165BAXR00B000037530010B00003835001000
EDEO A  000688830N:1C165AA R00B000029540040B00002955001010
EDEO A  000688831N:1C165ANFR00B000067900010B00006795001060PB000067900060NB000067950010
EDEO A  000688832N:1C165AT R00B000063050010B00006308003060NB000063050010PB000063080030
EDEO A  000688833P:1C165BHIR00B000067210050B00006732002000
EDEO A  000688834N:1C165AHCR00B000136850010B00013704001000
EDEO A  000688835N:1C165AFLR00B000046660060B00004674002060NB000046660060PB000046730040
EDEO A  000688836N:1C165AA R00B000029540250B00002955001010
EDEO A  000688837N:1C165BBVR00B000020260170B00002027015010
EDEO A  000688838P:1C165BA R00B000073480020B00007353005000
EDEO A  000688839P:1C165ACSR00B000063360050B00006343001000
EDEO A  000688840P:1C165BBLR00B000033850100B00003399010000
EDEO A  000688841N:1C165ASOR00B000027960070B00002798002010
EDEO A  000688842P:1C166BERR00B000057770010B00005785002000
EDEO A  000688843P:1C166AMRR00B000025110040B00002519002000
EDEO A  000688844N:1C166ADXR00B000013050040B00001306009010
EDEO A  000688845P:1C166AXPR00B000054400010B00005443007000
EDEO A  000688846N:1C166ABCR00B000046580100B00004659007010
EDEO A  000688847X:1C166AITR00B000043170010B00004355001000
EDEO A  000688848P:1C166ANFR00B000067890010B00006798003060NB000067900010NB000067950010
EDEO A  000688849P:1C166AEPR00B000035880080B00003657002060NB000036530070NB000036550110
EDEO A  000688850P:1C166BHIR00B000067210050B00006731006000
EDEO A  000688851P:1C166ANFR00B000067890010B00006797003000
EDEO A  000688852B:1C166BA R00B000073400010B00007361001000
EDEO A  000688853X:1C166ARER00B000088150010B00008884001000
EDEO A  000688854N:1C166ABBR00B000012145510B00001215763010
EDEO A  000688855N:1C166BHIR00B000067240080B00006725001010
EBEO A  000688856P:1C166BBI/B           0    AAAR  B0000000003520000002B0000000003610000001         40  NB0000000003530000001       TB0000000003610000020TRIM   
EDEO A  000688857B:1C166BA R00B000073400010B00007361001000
EDEO A  000688858P:1C166AESR00B000017480100B00001751003000
EDEO A  000688859N:1C166APCR00B000097610050B00009762001010
EDEO A  000688860N:1C166BACR00B000045990170B00004601152060PB000046000470NB000046011520
EDEO A  000688861X:1C166BF R00B000075840010B00007655001000
EDEO A  000688862N:1C166ACLR00B000114750080B00011477001010
EDEO A  000688863N:1C166BACR00B000045990170B00004601172060PB000046000470NB000046011720
EDEO A  000688864N:1C166BAXR00B000037930090B00003795009010
EDEO A  000688865X:1C166BHIR00B000066230010B00006830001000
EDEO A  000688866N:1C166AETR00B000051620070B00005163014010
EDEO A  000688867P:1C166AEPR00B000036530020B00003657002000
EDEO A  000688868P:1C166AMRR00B000025110030B00002519002000
EBEO A  000688869N:1C366BBI/B           0    AAAR  B0000000003550000001B0000000003610000013         40  NB0000000003550000001       TB0000000003610000020TRIM   
EDEO A  000688870N:1C366ALVR00B000053960020B00005400028010
EDEO A  000688871C:1C366BHIR00B000067210050B00006726006000
EDEO A  000688872X:1C366AMRR00B000024900010B00002544001000
EDEO A  000688873P:1C366AESR00B000017490030B00001751003000
EDEO A  000688874N:1C366AZ R00B000016310030B00001633356010
EDEO A  000688875B:1C366BHIR00B000067140010B00006735001000
EDEO A  000688876X:1C366AGLR00B000019620010B00002059001000
EDEO A  000688877P:1C366AKSR00B000011380020B00001142003060PB000011380020NB000011420060
EDEO A  000688878P:1C366AMNR00B000000010040B00006026001000
EDEO A  000688879N:1C366AXER00B000046790020B00004682002010
EDEO A  000688880B:1C366BHIR00B000067140010B00006735001000
EDEO A  000688881P:1C366AMRR00B000025150020B00002519002000
EDEO A  000688882C:1C366BHIR00B000067210050B00006730006000
EDEO A  000688883X:1C366AGUR00B000024960010B00002543001000
EDEO A  000688884N:1C366AXER00B000046790020B00004681001010
EDEO A  000688885B:1C366BHIR00B000067140010B00006735001000
EDEO A  000688886X:1C366AZRR00B000030150010B00003070001000
EBEO A  000688887T:1C366AXP             0    AAAR  B0000000054390000001B0000000054450000001BRUT     01
EDEO A  000688888N:1C366BDXR00B000064650110B00006471007000
EBEO A  000688889T:1C366AXP             0    AAAR  B0000000054390000001B0000000054450000001CAES     00
EDEO A  000688890P:1C366BF R00B000075910100B00007608001000
EDEO A  000688891P:1C366AXPR00B000054400010B00005443006000
EDEO A  000688892X:1C366BHIR00B000066240010B00006825001000
EDEO A  000688893P:1C366AXPR00B000054400150B00005443006000
EDEO A  000688894B:1C366AXPR00B000053920010B00005493001000
EDEO A  000688895P:1C366AXAR00B000035660260B00003569001060PB000035660260NB000035670100
EDEO A  000688896P:1C366AXPR00B000054400150B00005443002000
EBEO A  000688897T:1C366CVX             0    AAAR  B0000000056580000001B0000000056600000001CAES     00
EDEO A  000688898X:1C366CALR00B000023120010B00002364001000
EBEO A  000688899N:1C366BSG             4    AAAR  B0000000014200000009B0000000014220000002         10
EDEO A  000688900X:1C366CR R00B000038870010B00003984001000
EBEO A  000688901T:1C366CNX             0    AAAR  B0000000064270000001B0000000064800000002CAES     00
EDEO A  000688902N:1C366CVSR00B000028680510B00002869007010
EDEO A  000688903X:1C366C  R00B000046480010B00004686001000
EDEO A  000688904X:1C366CSXR00B000055280010B00005580001000
EDEO A  000688905N:1C366COFR00B000088700020B00008871022010
EDEO A  000688906X:1C366CTXR00B000066880010B00006893001000
EDEO A  000688907X:1C366CSXR00B000055280010B00005579001000
EDEO A  000688908X:1C366COGR00B000045160010B00004568001000
EDEO A  000688909X:1C366CX R00B000061680010B00006223001000
EBEO A  000688910T:1C367AXP             0    AAAR  B0000000054410000001B0000000054450000001BRUT     01
EBEO A  000688911T:1C367AXP             0    AAAR  B0000000054410000001B0000000054450000001CAES     00
EDEO A  000688912N:1C665CNIR00B000094150040B00009431001000
EDEO A  000688913N:1C665BRLR00B000066980010B00006701005060NB000066980010PB000066980010
EDEO A  000688914N:1C665CIGR00B000052420010B00005251002040  TB0000000052500000001TRIM   NB0000000052510000002       
EDEO A  000688915N:1C665CDIR00B000024600060B00002466002010
EDEO A  000688916N:1C665CTSR00B000012330170B00001238001060PB000012350010NB000012380010
EDEO A  000688917N:1C665CBMR00B000018680010B00001873033010
EDEO A  000688918N:1C665CRKR00B000028170010B00002819005010
EDEO A  000688919N:1C665BLKR00B000143260020B00014330001010
EDEO A  000688920P:1C665CMCR00B000045470030B00004588005000
EDEO A  000688921X:1C665BRYR00B000065580010B00006763001000
EDEO A  000688922P:1C665CI R00B000123280030B00012414007000
EDEO A  000688923X:1C665CTSR00B000012080010B00001264001000
EDEO A  000688924P:1C665CB R00B000094840030B00009499001060NB000094850020NB000094880010
EDEO A  000688925X:1C665CCCR00B000007770010B00000878001000
EDEO A  000688926N:1C666CRKR00B000028170010B00002819006010
EDEO A  000688927X:1C666BNKR00B000030570010B00003168001000
EDEO A  000688928N:1C666CMZR00B000012410020B00001244012010
EDEO A  000688929B:1C666BR R00B000090090010B00009031001000
EDEO A  000688930X:1C666CIBR00B000031620010B00003372001000
EDEO A  000688931X:1C666CX R00B000061720010B00006223001000
EDEO A  000688932N:1C666CAGR00B000021060180B00002108002010
EDEO A  000688933N:1C666CCUR00B000028210050B00002822006010
EDEO A  000688934P:1C666CRKR00B000028170010B00002822002000
EDEO A  000688935N:1C666BNKR00B000030780030B00003089010010
EDEO A  000688936N:1C666CMCR00B000045470070B00004557003060MB000045500080NB000045570030
EDEO A  000688937P:1C666BR R00B000090170170B00009021010000
EDEO A  000688938P:1C666CIBR00B000032640030B00003279002010
EDEO A  000688939N:1C666CX R00B000061930050B00006198004010
EDEO A  000688940C:1C666CALR00B000022970010B00002380001000
EBEO A  000688941N:1C666BOL             4    AAAR  B0000000069990000007B0000000070000000003         10
EDEO A  000688942N:1C666CSCR00B000054520100B00005457001010
EDEO A  000688943X:1C666COLR00B000053400010B00005417001000
EDEO A  000688944N:1C666BVNR00B000026740010B00002675100010
EDEO A  000688945P:1C666CJRR00B000031460230B00003167013010
EDEO A  000688946P:1C666CTSR00B000000010010B00001319003060NB000012330170NB000012380010
EDEO A  000688947C:1C666CALR00B000022970010B00002379001000
EDEO A  000688948N:1C666BNSR00B000042520700B00004259003000
EDEO A  000688949X:1C666BR R00B000089200010B00009121001000
EDEO A  000688950P:1C666CSLR00B000077220030B00007867002000
EDEO A  000688951N:1C666CMIR00B000108350050B00010851004000
EDEO A  000688952P:1C666CLFR00B000085230020B00008631007060PB000085230020NB000085500010
EDEO A  000688953N:1C666BLSR00B000031570050B00003158002010
EDEO A  000688954X:1C666CAGR00B000020810010B00002133001000
EDEO A  000688955N:1C666CE R00B000021780010B00002179004010
EDEO A  000688956N:1C667BUHR00B000016840550B00001690020010
EDEO A  000688957X:1C667CRER00B000041150010B00004167001000
EDEO A  000688958N:1C667CNQR00B000054260120B00005428004060NB000054260120PB000054280100
EDEO A  000688959N:1C667CHKR00B000029370070B00002940109000
EDEO A  000688960P:1C667CTSR00B000000010030B00001319003000
EDEO A  000688961P:1C667CB R00B000092010020B00009499001000
EDEO A  000688962N:1C667CD R00B000016460580B00001647073010
EBEO A  000688963T:1C667BR              0    AAAR  B0000000090170000010B0000000090240000006INET     01
EDEO A  000688964N:1C667CSGR00B000040790510B00004080001010
EDEO A  000688965P:1C667CNXR00B000064270020B00006428001060NB000064270050PB000064280010
EDEO A  000688966P:1C667CTSR00B000011550010B00001319003000
EDEO A  000688967N:1C667CKPR00B000029100020B00002917001010
EDEO A  000688968P:1C667CB R00B000094830030B00009499001000
EBEO A  000688969T:1C667BR              0    AAAR  B0000000090170000010B0000000090240000006CAES     00
EDEO A  000688970N:1C667CPSR00B000044650010B00004469005010
EDEO A  000688971P:1C667CIBR00B000032640030B00003278001010
EDEO A  000688972X:1C667CB R00B000094730010B00009516001000
EDEO A  000688973N:1C667CCLR00B000052450390B00005246009010
EDEO A  000688974P:1C667CNXR00B000064270020B00006463002060NB000064270050NB000064340010
EDEO A  000688975N:1C667CVCR00B000026420030B00002645101060PB000026420070NB000026451010
EDEO A  000688976P:1C667CSLR00B000077220030B00007866001000
EDEO A  000688977N:1C667CKHR00B000073100010B00007312001010
EDEO A  000688978X:1C667CB R00B000094730010B00009505001000
EDEO A  000688979N:1C667CCJR00B000036660080B00003667016010
EDEO A  000688980P:1C667CNXR00B000064270020B00006436003000
EDEO A  000688981P:1C667CP R00B000051210150B00005126007000
EDEO A  000688982N:1C667CLFR00B000085220030B00008551006060PB000085230020NB000085510060
EDEO A  000688983N:1C667CALR00B000023350120B00002339002010
EDEO A  000688984P:1C667CNXR00B000063690020B00006435003000
EDEO A  000688985P:1C675AT R00B000063040010B00006308003060NB000063050010NB000063080030
EDEO A  000688986P:1C675AXPR00B000054400150B00005444001000
EBEO A  000688987T:1C675ABS             0    AAAR  B0000000024640000010B0000000025420000100BRUT     43  PB0000000025410000005       TB0000000025420000100BRUT     B0000000024910000001SBSH   B0000000025420000100BRUT   
EDEO A  000688988N:1C675AINR00B000037010070B00003706001010
EDEO A  000688989N:1C675BACR00B000046000010B00004601153060PB000046000470NB000046011530
EDEO A  000688990P:1C675AUOR00B000016360010B00001720008000
EDEO A  000688991N:1C675ADPR00B000046070080B00004608033010
EBEO A  000688992T:1C675ABS             0    AAAR  B0000000024910000001B0000000025420000100CAES     00
EDEO A  000688993B:1C675BHIR00B000067140010B00006735001000
EDEO A  000688994N:1C675A  R00B000036400170B00003642010010
EDEO A  000688995N:1C675BA R00B000073500020B00007351007000
EDEO A  000688996P:1C675AT R00B000063040020B00006308003000
EDEO A  000688997P:1C676ANFR00B000067400030B00006797003000
EDEO A  000688998N:1C676ADMR00B000031780120B00003179037010
EDEO A  000688999N:1C676AIGR00B000066950080B00006697081040  TB0000000066950000009BRUT   NB0000000066970000081       
EDEO A  000689000N:1C676BF R00B000076020010B00007606001010
EDEO A  000689001P:1C676AUOR00B000016360010B00001644001000
EDEO A  000689002X:1C676AXPR00B000054170010B00005468001000
EDEO A  000689003N:1C676ACCR00B000025250030B00002529001010
EDEO A  000689004X:1C676AHCR00B000135590010B00013844001000
EDEO A  000689005B:1C676ANFR00B000067800010B00006805001000
EDEO A  000689006N:1C676BJSR00B000031650220B00003166051010
EDEO A  000689007P:1C676ADPR00B000046050030B00004610010000
EDEO A  000689008B:1C676AT R00B000062950010B00006318001000
EDEO A  000689009N:1C676ACFR00B000030090010B00003010001060PB000030090020NB000030100010
EDEO A  000689010B:1C676ADPR00B000045970010B00004618001000
EDEO A  000689011N:1C676AXSR00B000031010090B00003108006060NB000031010090PB000031070010
EDEO A  000689012N:1C676ASRR00B000034010010B00003420005060NB000034010010PB000034190010
EDEO A  000689013N:1C676AIGR00B000066950200B00006697081010
EDEO A  000689014B:1C676ANFR00B000067800010B00006805001000
EDEO A  000689015N:1C676BAXR00B000037930090B00003795001010
EDEO A  000689016N:1C676ACER00B000055630010B00005570002000
EDEO A  000689017C:1C676AXPR00B000054020010B00005483001000
EDEO A  000689018B:1C676AFLR00B000046560010B00004684001000
EDEO A  000689019P:1C676ANFR00B000067400030B00006795003060NB000067900010PB000067950030
EDEO A  000689020N:1C676BF R00B000076020010B00007605020010
EDEO A  000689021N:1C676AB R00B000065000160B00006503002010
EDEO A  000689022N:1C676ASHR00B000065840030B00006588011010
EDEO A  000689023P:1C676AFLR00B000046660030B00004674004060NB000046660060PB000046740040
EBEO A  000689024N:1C676BBI/B           0    AAAR  B0000000003550000013B0000000003610000013         40  NB0000000003550000013       TB0000000003610000020TRIM   
EDEO A  000689025N:1C676AL R00B000043000150B00004301006060NB000043000150PB000043000080
EDEO A  000689026N:1C676AVPR00B000029010030B00002906018060PB000029020030NB000029060180
EDEO A  000689027N:1C676BG R00B000057000010B00005703007010
EDEO A  000689028X:1C676AT R00B000062800010B00006333001000
EDEO A  000689029P:1C676APCR00B000097610040B00009768005000
EDEO A  000689030P:1C676AXER00B000046020030B00004697001000
EDEO A  000689031N:1C676BGGR00B000035940080B00003602003040  TB0000000035950000003TRIM   NB0000000036020000003       
EDEO A  000689032N:1C676ACFR00B000030090010B00003020038060PB000030090020NB000030200380
EDEO A  000689033P:1C676ANFR00B000067830030B00006795003000
